{
  "_format": "hh-sol-artifact-1",
  "contractName": "TripCompanion",
  "sourceName": "contracts/TripCompanion.sol",
  "abi": [
    {
      "anonymous": false,
      "inputs": [
        {
          "indexed": true,
          "internalType": "uint256",
          "name": "eventId",
          "type": "uint256"
        },
        {
          "indexed": false,
          "internalType": "string",
          "name": "destination",
          "type": "string"
        }
      ],
      "name": "EventCreated",
      "type": "event"
    },
    {
      "anonymous": false,
      "inputs": [
        {
          "indexed": true,
          "internalType": "address",
          "name": "user",
          "type": "address"
        },
        {
          "indexed": true,
          "internalType": "uint256",
          "name": "eventId",
          "type": "uint256"
        }
      ],
      "name": "InterestShown",
      "type": "event"
    },
    {
      "anonymous": false,
      "inputs": [
        {
          "indexed": true,
          "internalType": "address",
          "name": "user",
          "type": "address"
        },
        {
          "indexed": true,
          "internalType": "uint256",
          "name": "eventId",
          "type": "uint256"
        }
      ],
      "name": "MatchMade",
      "type": "event"
    },
    {
      "inputs": [
        {
          "internalType": "uint256",
          "name": "",
          "type": "uint256"
        }
      ],
      "name": "allUserList",
      "outputs": [
        {
          "internalType": "bool",
          "name": "registered",
          "type": "bool"
        },
        {
          "internalType": "string",
          "name": "name",
          "type": "string"
        },
        {
          "internalType": "string",
          "name": "dob",
          "type": "string"
        },
        {
          "internalType": "uint256",
          "name": "gender",
          "type": "uint256"
        },
        {
          "internalType": "string",
          "name": "bio",
          "type": "string"
        },
        {
          "internalType": "address",
          "name": "walletAddress",
          "type": "address"
        },
        {
          "internalType": "uint256",
          "name": "requestStatus",
          "type": "uint256"
        }
      ],
      "stateMutability": "view",
      "type": "function"
    },
    {
      "inputs": [
        {
          "internalType": "uint256",
          "name": "_eventId",
          "type": "uint256"
        },
        {
          "internalType": "address",
          "name": "_user",
          "type": "address"
        }
      ],
      "name": "approveInterest",
      "outputs": [],
      "stateMutability": "nonpayable",
      "type": "function"
    },
    {
      "inputs": [
        {
          "internalType": "string",
          "name": "_destination",
          "type": "string"
        },
        {
          "internalType": "string",
          "name": "_date",
          "type": "string"
        },
        {
          "internalType": "string",
          "name": "_name",
          "type": "string"
        }
      ],
      "name": "createEvent",
      "outputs": [],
      "stateMutability": "nonpayable",
      "type": "function"
    },
    {
      "inputs": [],
      "name": "eventIdCounter",
      "outputs": [
        {
          "internalType": "uint256",
          "name": "",
          "type": "uint256"
        }
      ],
      "stateMutability": "view",
      "type": "function"
    },
    {
      "inputs": [
        {
          "internalType": "uint256",
          "name": "",
          "type": "uint256"
        },
        {
          "internalType": "uint256",
          "name": "",
          "type": "uint256"
        }
      ],
      "name": "eventToUserMapping",
      "outputs": [
        {
          "internalType": "address",
          "name": "",
          "type": "address"
        }
      ],
      "stateMutability": "view",
      "type": "function"
    },
    {
      "inputs": [
        {
          "internalType": "uint256",
          "name": "",
          "type": "uint256"
        }
      ],
      "name": "events",
      "outputs": [
        {
          "internalType": "uint256",
          "name": "eventId",
          "type": "uint256"
        },
        {
          "internalType": "string",
          "name": "destination",
          "type": "string"
        },
        {
          "internalType": "string",
          "name": "date",
          "type": "string"
        },
        {
          "internalType": "string",
          "name": "name",
          "type": "string"
        },
        {
          "internalType": "address",
          "name": "creator",
          "type": "address"
        }
      ],
      "stateMutability": "view",
      "type": "function"
    },
    {
      "inputs": [
        {
          "internalType": "address",
          "name": "userAddress",
          "type": "address"
        }
      ],
      "name": "fetchUser",
      "outputs": [
        {
          "components": [
            {
              "internalType": "bool",
              "name": "registered",
              "type": "bool"
            },
            {
              "internalType": "string",
              "name": "name",
              "type": "string"
            },
            {
              "internalType": "string",
              "name": "dob",
              "type": "string"
            },
            {
              "internalType": "uint256",
              "name": "gender",
              "type": "uint256"
            },
            {
              "internalType": "string",
              "name": "bio",
              "type": "string"
            },
            {
              "internalType": "address",
              "name": "walletAddress",
              "type": "address"
            },
            {
              "internalType": "uint256",
              "name": "requestStatus",
              "type": "uint256"
            }
          ],
          "internalType": "struct TripCompanion.User",
          "name": "",
          "type": "tuple"
        }
      ],
      "stateMutability": "view",
      "type": "function"
    },
    {
      "inputs": [],
      "name": "getAllEvents",
      "outputs": [
        {
          "components": [
            {
              "internalType": "uint256",
              "name": "eventId",
              "type": "uint256"
            },
            {
              "internalType": "string",
              "name": "destination",
              "type": "string"
            },
            {
              "internalType": "string",
              "name": "date",
              "type": "string"
            },
            {
              "internalType": "string",
              "name": "name",
              "type": "string"
            },
            {
              "internalType": "address",
              "name": "creator",
              "type": "address"
            },
            {
              "internalType": "address[]",
              "name": "matches",
              "type": "address[]"
            }
          ],
          "internalType": "struct TripCompanion.Event[]",
          "name": "",
          "type": "tuple[]"
        }
      ],
      "stateMutability": "view",
      "type": "function"
    },
    {
      "inputs": [],
      "name": "getApprovedEvents",
      "outputs": [
        {
          "components": [
            {
              "internalType": "uint256",
              "name": "eventId",
              "type": "uint256"
            },
            {
              "internalType": "string",
              "name": "destination",
              "type": "string"
            },
            {
              "internalType": "string",
              "name": "date",
              "type": "string"
            },
            {
              "internalType": "string",
              "name": "name",
              "type": "string"
            },
            {
              "internalType": "address",
              "name": "creator",
              "type": "address"
            },
            {
              "internalType": "address[]",
              "name": "matches",
              "type": "address[]"
            }
          ],
          "internalType": "struct TripCompanion.Event[]",
          "name": "",
          "type": "tuple[]"
        }
      ],
      "stateMutability": "view",
      "type": "function"
    },
    {
      "inputs": [
        {
          "internalType": "uint256",
          "name": "_eventId",
          "type": "uint256"
        }
      ],
      "name": "getApprovedUsers",
      "outputs": [
        {
          "components": [
            {
              "internalType": "bool",
              "name": "registered",
              "type": "bool"
            },
            {
              "internalType": "string",
              "name": "name",
              "type": "string"
            },
            {
              "internalType": "string",
              "name": "dob",
              "type": "string"
            },
            {
              "internalType": "uint256",
              "name": "gender",
              "type": "uint256"
            },
            {
              "internalType": "string",
              "name": "bio",
              "type": "string"
            },
            {
              "internalType": "address",
              "name": "walletAddress",
              "type": "address"
            },
            {
              "internalType": "uint256",
              "name": "requestStatus",
              "type": "uint256"
            }
          ],
          "internalType": "struct TripCompanion.User[]",
          "name": "",
          "type": "tuple[]"
        }
      ],
      "stateMutability": "view",
      "type": "function"
    },
    {
      "inputs": [
        {
          "internalType": "uint256",
          "name": "_eventId",
          "type": "uint256"
        }
      ],
      "name": "getEvent",
      "outputs": [
        {
          "components": [
            {
              "internalType": "uint256",
              "name": "eventId",
              "type": "uint256"
            },
            {
              "internalType": "string",
              "name": "destination",
              "type": "string"
            },
            {
              "internalType": "string",
              "name": "date",
              "type": "string"
            },
            {
              "internalType": "string",
              "name": "name",
              "type": "string"
            },
            {
              "internalType": "address",
              "name": "creator",
              "type": "address"
            },
            {
              "internalType": "address[]",
              "name": "matches",
              "type": "address[]"
            }
          ],
          "internalType": "struct TripCompanion.Event",
          "name": "",
          "type": "tuple"
        }
      ],
      "stateMutability": "view",
      "type": "function"
    },
    {
      "inputs": [
        {
          "internalType": "uint256",
          "name": "_eventId",
          "type": "uint256"
        }
      ],
      "name": "getEventOwner",
      "outputs": [
        {
          "internalType": "address",
          "name": "",
          "type": "address"
        }
      ],
      "stateMutability": "view",
      "type": "function"
    },
    {
      "inputs": [
        {
          "internalType": "address",
          "name": "_user",
          "type": "address"
        }
      ],
      "name": "getEvents",
      "outputs": [
        {
          "components": [
            {
              "internalType": "uint256",
              "name": "eventId",
              "type": "uint256"
            },
            {
              "internalType": "string",
              "name": "destination",
              "type": "string"
            },
            {
              "internalType": "string",
              "name": "date",
              "type": "string"
            },
            {
              "internalType": "string",
              "name": "name",
              "type": "string"
            },
            {
              "internalType": "address",
              "name": "creator",
              "type": "address"
            },
            {
              "internalType": "address[]",
              "name": "matches",
              "type": "address[]"
            }
          ],
          "internalType": "struct TripCompanion.Event[]",
          "name": "",
          "type": "tuple[]"
        }
      ],
      "stateMutability": "view",
      "type": "function"
    },
    {
      "inputs": [],
      "name": "getInterestedEvents",
      "outputs": [
        {
          "components": [
            {
              "internalType": "uint256",
              "name": "eventId",
              "type": "uint256"
            },
            {
              "internalType": "string",
              "name": "destination",
              "type": "string"
            },
            {
              "internalType": "string",
              "name": "date",
              "type": "string"
            },
            {
              "internalType": "string",
              "name": "name",
              "type": "string"
            },
            {
              "internalType": "address",
              "name": "creator",
              "type": "address"
            },
            {
              "internalType": "address[]",
              "name": "matches",
              "type": "address[]"
            }
          ],
          "internalType": "struct TripCompanion.Event[]",
          "name": "",
          "type": "tuple[]"
        }
      ],
      "stateMutability": "view",
      "type": "function"
    },
    {
      "inputs": [
        {
          "internalType": "uint256",
          "name": "_eventId",
          "type": "uint256"
        }
      ],
      "name": "getInterestedUsers",
      "outputs": [
        {
          "components": [
            {
              "internalType": "bool",
              "name": "registered",
              "type": "bool"
            },
            {
              "internalType": "string",
              "name": "name",
              "type": "string"
            },
            {
              "internalType": "string",
              "name": "dob",
              "type": "string"
            },
            {
              "internalType": "uint256",
              "name": "gender",
              "type": "uint256"
            },
            {
              "internalType": "string",
              "name": "bio",
              "type": "string"
            },
            {
              "internalType": "address",
              "name": "walletAddress",
              "type": "address"
            },
            {
              "internalType": "uint256",
              "name": "requestStatus",
              "type": "uint256"
            }
          ],
          "internalType": "struct TripCompanion.User[]",
          "name": "",
          "type": "tuple[]"
        }
      ],
      "stateMutability": "view",
      "type": "function"
    },
    {
      "inputs": [
        {
          "internalType": "uint256",
          "name": "_eventId",
          "type": "uint256"
        }
      ],
      "name": "getMatches",
      "outputs": [
        {
          "internalType": "address[]",
          "name": "",
          "type": "address[]"
        }
      ],
      "stateMutability": "view",
      "type": "function"
    },
    {
      "inputs": [],
      "name": "getRejectedEvents",
      "outputs": [
        {
          "components": [
            {
              "internalType": "uint256",
              "name": "eventId",
              "type": "uint256"
            },
            {
              "internalType": "string",
              "name": "destination",
              "type": "string"
            },
            {
              "internalType": "string",
              "name": "date",
              "type": "string"
            },
            {
              "internalType": "string",
              "name": "name",
              "type": "string"
            },
            {
              "internalType": "address",
              "name": "creator",
              "type": "address"
            },
            {
              "internalType": "address[]",
              "name": "matches",
              "type": "address[]"
            }
          ],
          "internalType": "struct TripCompanion.Event[]",
          "name": "",
          "type": "tuple[]"
        }
      ],
      "stateMutability": "view",
      "type": "function"
    },
    {
      "inputs": [
        {
          "internalType": "uint256",
          "name": "_eventId",
          "type": "uint256"
        }
      ],
      "name": "getRejectedUsers",
      "outputs": [
        {
          "components": [
            {
              "internalType": "bool",
              "name": "registered",
              "type": "bool"
            },
            {
              "internalType": "string",
              "name": "name",
              "type": "string"
            },
            {
              "internalType": "string",
              "name": "dob",
              "type": "string"
            },
            {
              "internalType": "uint256",
              "name": "gender",
              "type": "uint256"
            },
            {
              "internalType": "string",
              "name": "bio",
              "type": "string"
            },
            {
              "internalType": "address",
              "name": "walletAddress",
              "type": "address"
            },
            {
              "internalType": "uint256",
              "name": "requestStatus",
              "type": "uint256"
            }
          ],
          "internalType": "struct TripCompanion.User[]",
          "name": "",
          "type": "tuple[]"
        }
      ],
      "stateMutability": "view",
      "type": "function"
    },
    {
      "inputs": [
        {
          "internalType": "address",
          "name": "",
          "type": "address"
        },
        {
          "internalType": "uint256",
          "name": "",
          "type": "uint256"
        }
      ],
      "name": "interested",
      "outputs": [
        {
          "internalType": "uint256",
          "name": "",
          "type": "uint256"
        }
      ],
      "stateMutability": "view",
      "type": "function"
    },
    {
      "inputs": [],
      "name": "isUserRegistered",
      "outputs": [
        {
          "internalType": "bool",
          "name": "",
          "type": "bool"
        }
      ],
      "stateMutability": "view",
      "type": "function"
    },
    {
      "inputs": [
        {
          "internalType": "string",
          "name": "_name",
          "type": "string"
        },
        {
          "internalType": "string",
          "name": "_dob",
          "type": "string"
        },
        {
          "internalType": "uint256",
          "name": "gender",
          "type": "uint256"
        },
        {
          "internalType": "string",
          "name": "_bio",
          "type": "string"
        }
      ],
      "name": "registerUser",
      "outputs": [],
      "stateMutability": "nonpayable",
      "type": "function"
    },
    {
      "inputs": [
        {
          "internalType": "uint256",
          "name": "_eventId",
          "type": "uint256"
        },
        {
          "internalType": "address",
          "name": "_user",
          "type": "address"
        }
      ],
      "name": "rejectInterest",
      "outputs": [],
      "stateMutability": "nonpayable",
      "type": "function"
    },
    {
      "inputs": [
        {
          "internalType": "uint256",
          "name": "_eventId",
          "type": "uint256"
        }
      ],
      "name": "showInterest",
      "outputs": [],
      "stateMutability": "nonpayable",
      "type": "function"
    },
    {
      "inputs": [
        {
          "internalType": "address",
          "name": "",
          "type": "address"
        }
      ],
      "name": "users",
      "outputs": [
        {
          "internalType": "bool",
          "name": "registered",
          "type": "bool"
        },
        {
          "internalType": "string",
          "name": "name",
          "type": "string"
        },
        {
          "internalType": "string",
          "name": "dob",
          "type": "string"
        },
        {
          "internalType": "uint256",
          "name": "gender",
          "type": "uint256"
        },
        {
          "internalType": "string",
          "name": "bio",
          "type": "string"
        },
        {
          "internalType": "address",
          "name": "walletAddress",
          "type": "address"
        },
        {
          "internalType": "uint256",
          "name": "requestStatus",
          "type": "uint256"
        }
      ],
      "stateMutability": "view",
      "type": "function"
    }
  ],
  "bytecode": "0x6080604052600060035534801561001557600080fd5b50613d8b806100256000396000f3fe608060405234801561001057600080fd5b50600436106101585760003560e01c8063a87430ba116100c3578063c6c65fda1161007c578063c6c65fda1461032d578063e01a0ebe14610340578063e60d585a14610349578063f2cf391c14610369578063fe210f691461037c578063ffa216af1461038f57600080fd5b8063a87430ba14610294578063a87532e3146102a7578063b8ac6b5c146102ba578063be6f0ea2146102da578063bf0d9d08146102fa578063c27a500d1461032557600080fd5b80637453d952116101155780637453d952146101e4578063858a0d0b146101f7578063873138f31461021d57806399f76c7d146102355780639b503fd81461026e578063a4c8b6e31461028157600080fd5b80630b7914301461015d5780631c97580b1461018a5780633a4e44621461019f57806365d66d91146101a75780636d1884e0146101bc57806373b30b8b146101dc575b600080fd5b61017061016b366004613486565b6103a2565b6040516101819594939291906134e5565b60405180910390f35b610192610585565b60405161018191906135fb565b61019261095d565b6101ba6101b5366004613700565b610d2e565b005b6101cf6101ca366004613486565b610f54565b6040516101819190613792565b6101926111e6565b6101ba6101f23660046137c8565b6115b7565b61020a610205366004613486565b611763565b60405161018197969594939291906137f4565b610225611957565b6040519015158152602001610181565b61026061024336600461385b565b600460209081526000928352604080842090915290825290205481565b604051908152602001610181565b6101ba61027c366004613885565b61197f565b61019261028f36600461390d565b611b15565b61020a6102a236600461390d565b611ed0565b6101ba6102b5366004613486565b611ef6565b6102cd6102c8366004613486565b612069565b60405161018191906139af565b6102ed6102e836600461390d565b61240d565b6040516101819190613a04565b61030d610308366004613a17565b612679565b6040516001600160a01b039091168152602001610181565b6101926126b1565b6102cd61033b366004613486565b612942565b61026060035481565b61035c610357366004613486565b612ce6565b6040516101819190613a39565b6101ba6103773660046137c8565b612d8e565b61030d61038a366004613486565b612f87565b6102cd61039d366004613486565b612fe1565b600281815481106103b257600080fd5b600091825260209091206006909102018054600182018054919350906103d790613a86565b80601f016020809104026020016040519081016040528092919081815260200182805461040390613a86565b80156104505780601f1061042557610100808354040283529160200191610450565b820191906000526020600020905b81548152906001019060200180831161043357829003601f168201915b50505050509080600201805461046590613a86565b80601f016020809104026020016040519081016040528092919081815260200182805461049190613a86565b80156104de5780601f106104b3576101008083540402835291602001916104de565b820191906000526020600020905b8154815290600101906020018083116104c157829003601f168201915b5050505050908060030180546104f390613a86565b80601f016020809104026020016040519081016040528092919081815260200182805461051f90613a86565b801561056c5780601f106105415761010080835404028352916020019161056c565b820191906000526020600020905b81548152906001019060200180831161054f57829003601f168201915b505050600490930154919250506001600160a01b031685565b60606000805b6002548110156106035733600090815260046020526040812060028054919291849081106105bb576105bb613ac0565b9060005260206000209060060201600001548152602001908152602001600020546003036105f157816105ed81613ad6565b9250505b806105fb81613ad6565b91505061058b565b5060008167ffffffffffffffff81111561061f5761061f61365d565b60405190808252806020026020018201604052801561065857816020015b610645613385565b81526020019060019003908161063d5790505b5090506000915060005b60025481101561095657336000908152600460205260408120600280549192918490811061069257610692613ac0565b90600052602060002090600602016000015481526020019081526020016000205460030361094457600281815481106106cd576106cd613ac0565b90600052602060002090600602016040518060c00160405290816000820154815260200160018201805461070090613a86565b80601f016020809104026020016040519081016040528092919081815260200182805461072c90613a86565b80156107795780601f1061074e57610100808354040283529160200191610779565b820191906000526020600020905b81548152906001019060200180831161075c57829003601f168201915b5050505050815260200160028201805461079290613a86565b80601f01602080910402602001604051908101604052809291908181526020018280546107be90613a86565b801561080b5780601f106107e05761010080835404028352916020019161080b565b820191906000526020600020905b8154815290600101906020018083116107ee57829003601f168201915b5050505050815260200160038201805461082490613a86565b80601f016020809104026020016040519081016040528092919081815260200182805461085090613a86565b801561089d5780601f106108725761010080835404028352916020019161089d565b820191906000526020600020905b81548152906001019060200180831161088057829003601f168201915b505050918352505060048201546001600160a01b0316602080830191909152600583018054604080518285028101850182528281529401939283018282801561090f57602002820191906000526020600020905b81546001600160a01b031681526001909101906020018083116108f1575b50505050508152505082848151811061092a5761092a613ac0565b6020026020010181905250828061094090613ad6565b9350505b8061094e81613ad6565b915050610662565b5092915050565b60606000805b6002548110156109db57336000908152600460205260408120600280549192918490811061099357610993613ac0565b9060005260206000209060060201600001548152602001908152602001600020546001036109c957816109c581613ad6565b9250505b806109d381613ad6565b915050610963565b5060008167ffffffffffffffff8111156109f7576109f761365d565b604051908082528060200260200182016040528015610a3057816020015b610a1d613385565b815260200190600190039081610a155790505b5090506000915060005b600254811015610956573360009081526004602052604081206002805491929184908110610a6a57610a6a613ac0565b906000526020600020906006020160000154815260200190815260200160002054600103610d1c5760028181548110610aa557610aa5613ac0565b90600052602060002090600602016040518060c001604052908160008201548152602001600182018054610ad890613a86565b80601f0160208091040260200160405190810160405280929190818152602001828054610b0490613a86565b8015610b515780601f10610b2657610100808354040283529160200191610b51565b820191906000526020600020905b815481529060010190602001808311610b3457829003601f168201915b50505050508152602001600282018054610b6a90613a86565b80601f0160208091040260200160405190810160405280929190818152602001828054610b9690613a86565b8015610be35780601f10610bb857610100808354040283529160200191610be3565b820191906000526020600020905b815481529060010190602001808311610bc657829003601f168201915b50505050508152602001600382018054610bfc90613a86565b80601f0160208091040260200160405190810160405280929190818152602001828054610c2890613a86565b8015610c755780601f10610c4a57610100808354040283529160200191610c75565b820191906000526020600020905b815481529060010190602001808311610c5857829003601f168201915b505050918352505060048201546001600160a01b03166020808301919091526005830180546040805182850281018501825282815294019392830182828015610ce757602002820191906000526020600020905b81546001600160a01b03168152600190910190602001808311610cc9575b505050505081525050828481518110610d0257610d02613ac0565b60200260200101819052508280610d1890613ad6565b9350505b80610d2681613ad6565b915050610a3a565b3360009081526020819052604090205460ff1615610d935760405162461bcd60e51b815260206004820152601760248201527f5573657220616c7265616479207265676973746572656400000000000000000060448201526064015b60405180910390fd5b6040805160e0810182526001808252602080830188815283850188905260608401879052608084018690523360a08501819052600060c08601819052908152918290529390208251815460ff1916901515178155925191929190820190610dfa9082613b4c565b5060408201516002820190610e0f9082613b4c565b506060820151600382015560808201516004820190610e2e9082613b4c565b5060a08201516005820180546001600160a01b0319166001600160a01b0390921691909117905560c0909101516006909101553360009081526020819052604081206001805480820182559281905281547fb10e2d527612073b26eecdfd717e6a320cf44b4afac2b0732d9fcbe2b7fa0cf66007909402938401805460ff191660ff909216151591909117815591927fb10e2d527612073b26eecdfd717e6a320cf44b4afac2b0732d9fcbe2b7fa0cf70190610eec90840182613c0c565b50600281810190610eff90840182613c0c565b506003820154816003015560048201816004019081610f1e9190613c0c565b5060058281015490820180546001600160a01b0319166001600160a01b0390921691909117905560069182015491015550505050565b610f5c613385565b6002548210610f7d5760405162461bcd60e51b8152600401610d8a90613ce7565b600060028381548110610f9257610f92613ac0565b90600052602060002090600602016040518060c001604052908160008201548152602001600182018054610fc590613a86565b80601f0160208091040260200160405190810160405280929190818152602001828054610ff190613a86565b801561103e5780601f106110135761010080835404028352916020019161103e565b820191906000526020600020905b81548152906001019060200180831161102157829003601f168201915b5050505050815260200160028201805461105790613a86565b80601f016020809104026020016040519081016040528092919081815260200182805461108390613a86565b80156110d05780601f106110a5576101008083540402835291602001916110d0565b820191906000526020600020905b8154815290600101906020018083116110b357829003601f168201915b505050505081526020016003820180546110e990613a86565b80601f016020809104026020016040519081016040528092919081815260200182805461111590613a86565b80156111625780601f1061113757610100808354040283529160200191611162565b820191906000526020600020905b81548152906001019060200180831161114557829003601f168201915b505050918352505060048201546001600160a01b031660208083019190915260058301805460408051828502810185018252828152940193928301828280156111d457602002820191906000526020600020905b81546001600160a01b031681526001909101906020018083116111b6575b50505091909252509195945050505050565b60606000805b60025481101561126457336000908152600460205260408120600280549192918490811061121c5761121c613ac0565b906000526020600020906006020160000154815260200190815260200160002054600203611252578161124e81613ad6565b9250505b8061125c81613ad6565b9150506111ec565b5060008167ffffffffffffffff8111156112805761128061365d565b6040519080825280602002602001820160405280156112b957816020015b6112a6613385565b81526020019060019003908161129e5790505b5090506000915060005b6002548110156109565733600090815260046020526040812060028054919291849081106112f3576112f3613ac0565b9060005260206000209060060201600001548152602001908152602001600020546002036115a5576002818154811061132e5761132e613ac0565b90600052602060002090600602016040518060c00160405290816000820154815260200160018201805461136190613a86565b80601f016020809104026020016040519081016040528092919081815260200182805461138d90613a86565b80156113da5780601f106113af576101008083540402835291602001916113da565b820191906000526020600020905b8154815290600101906020018083116113bd57829003601f168201915b505050505081526020016002820180546113f390613a86565b80601f016020809104026020016040519081016040528092919081815260200182805461141f90613a86565b801561146c5780601f106114415761010080835404028352916020019161146c565b820191906000526020600020905b81548152906001019060200180831161144f57829003601f168201915b5050505050815260200160038201805461148590613a86565b80601f01602080910402602001604051908101604052809291908181526020018280546114b190613a86565b80156114fe5780601f106114d3576101008083540402835291602001916114fe565b820191906000526020600020905b8154815290600101906020018083116114e157829003601f168201915b505050918352505060048201546001600160a01b0316602080830191909152600583018054604080518285028101850182528281529401939283018282801561157057602002820191906000526020600020905b81546001600160a01b03168152600190910190602001808311611552575b50505050508152505082848151811061158b5761158b613ac0565b602002602001018190525082806115a190613ad6565b9350505b806115af81613ad6565b9150506112c3565b60025482106115d85760405162461bcd60e51b8152600401610d8a90613ce7565b6001600160a01b03811660009081526020819052604090205460ff166116105760405162461bcd60e51b8152600401610d8a90613d15565b6001600160a01b038116600090815260046020908152604080832085845290915290205460011461167a5760405162461bcd60e51b815260206004820152601460248201527327379034b73a32b932b9ba1034b99039b437bbb760611b6044820152606401610d8a565b6002828154811061168d5761168d613ac0565b60009182526020909120600690910201600401546001600160a01b031633146116f85760405162461bcd60e51b815260206004820181905260248201527f4f6e6c7920616e206576656e742063726561746f722063616e2072656a6563746044820152606401610d8a565b806001600160a01b03166002838154811061171557611715613ac0565b60009182526020909120600460069092020101546001600160a01b03161461175f576001600160a01b03811660009081526004602090815260408083208584529091529020600290555b5050565b6001818154811061177357600080fd5b60009182526020909120600790910201805460018201805460ff90921693509061179c90613a86565b80601f01602080910402602001604051908101604052809291908181526020018280546117c890613a86565b80156118155780601f106117ea57610100808354040283529160200191611815565b820191906000526020600020905b8154815290600101906020018083116117f857829003601f168201915b50505050509080600201805461182a90613a86565b80601f016020809104026020016040519081016040528092919081815260200182805461185690613a86565b80156118a35780601f10611878576101008083540402835291602001916118a3565b820191906000526020600020905b81548152906001019060200180831161188657829003601f168201915b5050505050908060030154908060040180546118be90613a86565b80601f01602080910402602001604051908101604052809291908181526020018280546118ea90613a86565b80156119375780601f1061190c57610100808354040283529160200191611937565b820191906000526020600020905b81548152906001019060200180831161191a57829003601f168201915b50505050600583015460069093015491926001600160a01b031691905087565b3360009081526020819052604081205460ff1615156001036119795750600190565b50600090565b3360009081526020819052604090205460ff166119ae5760405162461bcd60e51b8152600401610d8a90613d15565b6040805160c081018252600354815260208101858152918101849052606081810184905233608083015260a0820181905260028054600181018255600091909152825160069091027f405787fa12a823e0f2b7631cc41b3ba8828b3321ca811111fa75cd3aa3bb5ace81019182559351919390917f405787fa12a823e0f2b7631cc41b3ba8828b3321ca811111fa75cd3aa3bb5acf90910190611a519082613b4c565b5060408201516002820190611a669082613b4c565b5060608201516003820190611a7b9082613b4c565b5060808201516004820180546001600160a01b0319166001600160a01b0390921691909117905560a08201518051611abd9160058401916020909101906133c4565b5050506003547f9ce3d6db707bca4ba0eabed8fba1e2c013a1c0bc1132a764170a7854d198c73d85604051611af29190613d42565b60405180910390a260038054906000611b0a83613ad6565b919050555050505050565b60606000805b600254811015611b8457836001600160a01b031660028281548110611b4257611b42613ac0565b60009182526020909120600460069092020101546001600160a01b031603611b725781611b6e81613ad6565b9250505b80611b7c81613ad6565b915050611b1b565b5060008167ffffffffffffffff811115611ba057611ba061365d565b604051908082528060200260200182016040528015611bd957816020015b611bc6613385565b815260200190600190039081611bbe5790505b5090506000915060005b600254811015611ec857846001600160a01b031660028281548110611c0a57611c0a613ac0565b60009182526020909120600460069092020101546001600160a01b031603611eb65760028181548110611c3f57611c3f613ac0565b90600052602060002090600602016040518060c001604052908160008201548152602001600182018054611c7290613a86565b80601f0160208091040260200160405190810160405280929190818152602001828054611c9e90613a86565b8015611ceb5780601f10611cc057610100808354040283529160200191611ceb565b820191906000526020600020905b815481529060010190602001808311611cce57829003601f168201915b50505050508152602001600282018054611d0490613a86565b80601f0160208091040260200160405190810160405280929190818152602001828054611d3090613a86565b8015611d7d5780601f10611d5257610100808354040283529160200191611d7d565b820191906000526020600020905b815481529060010190602001808311611d6057829003601f168201915b50505050508152602001600382018054611d9690613a86565b80601f0160208091040260200160405190810160405280929190818152602001828054611dc290613a86565b8015611e0f5780601f10611de457610100808354040283529160200191611e0f565b820191906000526020600020905b815481529060010190602001808311611df257829003601f168201915b505050918352505060048201546001600160a01b03166020808301919091526005830180546040805182850281018501825282815294019392830182828015611e8157602002820191906000526020600020905b81546001600160a01b03168152600190910190602001808311611e63575b505050505081525050828481518110611e9c57611e9c613ac0565b60200260200101819052508280611eb290613ad6565b9350505b80611ec081613ad6565b915050611be3565b509392505050565b6000602081905290815260409020805460018201805460ff909216929161179c90613a86565b6002548110611f175760405162461bcd60e51b8152600401610d8a90613ce7565b3360009081526020819052604090205460ff16611f465760405162461bcd60e51b8152600401610d8a90613d15565b33600090815260046020908152604080832084845290915290205415611fa35760405162461bcd60e51b8152602060048201526012602482015271105b1c9958591e481a5b9d195c995cdd195960721b6044820152606401610d8a565b336001600160a01b031660028281548110611fc057611fc0613ac0565b60009182526020909120600460069092020101546001600160a01b0316036120205760405162461bcd60e51b815260206004820152601360248201527221b932b0ba37b91031b0b73737ba103537b4b760691b6044820152606401610d8a565b33600081815260046020908152604080832085845290915280822060019055518392917f9eeb640afe5ae6054f4f5d92f84463dda9ae47a784ce280728fa0acf5093fe9891a350565b60606000805b6001548110156120f057600460006001838154811061209057612090613ac0565b60009182526020808320600560079093020191909101546001600160a01b0316835282810193909352604091820181208782529092529020546002036120de57816120da81613ad6565b9250505b806120e881613ad6565b91505061206f565b5060008167ffffffffffffffff81111561210c5761210c61365d565b60405190808252806020026020018201604052801561214557816020015b612132613429565b81526020019060019003908161212a5790505b5090506000915060005b600154811015611ec857600460006001838154811061217057612170613ac0565b60009182526020808320600560079093020191909101546001600160a01b0316835282810193909352604091820181208882529092529020546002036123fb57600181815481106121c3576121c3613ac0565b60009182526020918290206040805160e08101909152600790920201805460ff161515825260018101805492939192918401916121ff90613a86565b80601f016020809104026020016040519081016040528092919081815260200182805461222b90613a86565b80156122785780601f1061224d57610100808354040283529160200191612278565b820191906000526020600020905b81548152906001019060200180831161225b57829003601f168201915b5050505050815260200160028201805461229190613a86565b80601f01602080910402602001604051908101604052809291908181526020018280546122bd90613a86565b801561230a5780601f106122df5761010080835404028352916020019161230a565b820191906000526020600020905b8154815290600101906020018083116122ed57829003601f168201915b505050505081526020016003820154815260200160048201805461232d90613a86565b80601f016020809104026020016040519081016040528092919081815260200182805461235990613a86565b80156123a65780601f1061237b576101008083540402835291602001916123a6565b820191906000526020600020905b81548152906001019060200180831161238957829003601f168201915b505050918352505060058201546001600160a01b0316602082015260069091015460409091015282518390859081106123e1576123e1613ac0565b602002602001018190525082806123f790613ad6565b9350505b8061240581613ad6565b91505061214f565b612415613429565b3360009081526020819052604090205460ff161515600103612645576001600160a01b03821660009081526020818152604091829020825160e08101909352805460ff1615158352600181018054919284019161247190613a86565b80601f016020809104026020016040519081016040528092919081815260200182805461249d90613a86565b80156124ea5780601f106124bf576101008083540402835291602001916124ea565b820191906000526020600020905b8154815290600101906020018083116124cd57829003601f168201915b5050505050815260200160028201805461250390613a86565b80601f016020809104026020016040519081016040528092919081815260200182805461252f90613a86565b801561257c5780601f106125515761010080835404028352916020019161257c565b820191906000526020600020905b81548152906001019060200180831161255f57829003601f168201915b505050505081526020016003820154815260200160048201805461259f90613a86565b80601f01602080910402602001604051908101604052809291908181526020018280546125cb90613a86565b80156126185780601f106125ed57610100808354040283529160200191612618565b820191906000526020600020905b8154815290600101906020018083116125fb57829003601f168201915b505050918352505060058201546001600160a01b0316602082015260069091015460409091015292915050565b60405162461bcd60e51b8152602060048201526009602482015268139bdd08199bdd5b9960ba1b6044820152606401610d8a565b6005602052816000526040600020818154811061269557600080fd5b6000918252602090912001546001600160a01b03169150829050565b60606002805480602002602001604051908101604052809291908181526020016000905b8282101561293957838290600052602060002090600602016040518060c00160405290816000820154815260200160018201805461271290613a86565b80601f016020809104026020016040519081016040528092919081815260200182805461273e90613a86565b801561278b5780601f106127605761010080835404028352916020019161278b565b820191906000526020600020905b81548152906001019060200180831161276e57829003601f168201915b505050505081526020016002820180546127a490613a86565b80601f01602080910402602001604051908101604052809291908181526020018280546127d090613a86565b801561281d5780601f106127f25761010080835404028352916020019161281d565b820191906000526020600020905b81548152906001019060200180831161280057829003601f168201915b5050505050815260200160038201805461283690613a86565b80601f016020809104026020016040519081016040528092919081815260200182805461286290613a86565b80156128af5780601f10612884576101008083540402835291602001916128af565b820191906000526020600020905b81548152906001019060200180831161289257829003601f168201915b505050918352505060048201546001600160a01b0316602080830191909152600583018054604080518285028101850182528281529401939283018282801561292157602002820191906000526020600020905b81546001600160a01b03168152600190910190602001808311612903575b505050505081525050815260200190600101906126d5565b50505050905090565b60606000805b6001548110156129c957600460006001838154811061296957612969613ac0565b60009182526020808320600560079093020191909101546001600160a01b0316835282810193909352604091820181208782529092529020546003036129b757816129b381613ad6565b9250505b806129c181613ad6565b915050612948565b5060008167ffffffffffffffff8111156129e5576129e561365d565b604051908082528060200260200182016040528015612a1e57816020015b612a0b613429565b815260200190600190039081612a035790505b5090506000915060005b600154811015611ec8576004600060018381548110612a4957612a49613ac0565b60009182526020808320600560079093020191909101546001600160a01b031683528281019390935260409182018120888252909252902054600303612cd45760018181548110612a9c57612a9c613ac0565b60009182526020918290206040805160e08101909152600790920201805460ff16151582526001810180549293919291840191612ad890613a86565b80601f0160208091040260200160405190810160405280929190818152602001828054612b0490613a86565b8015612b515780601f10612b2657610100808354040283529160200191612b51565b820191906000526020600020905b815481529060010190602001808311612b3457829003601f168201915b50505050508152602001600282018054612b6a90613a86565b80601f0160208091040260200160405190810160405280929190818152602001828054612b9690613a86565b8015612be35780601f10612bb857610100808354040283529160200191612be3565b820191906000526020600020905b815481529060010190602001808311612bc657829003601f168201915b5050505050815260200160038201548152602001600482018054612c0690613a86565b80601f0160208091040260200160405190810160405280929190818152602001828054612c3290613a86565b8015612c7f5780601f10612c5457610100808354040283529160200191612c7f565b820191906000526020600020905b815481529060010190602001808311612c6257829003601f168201915b505050918352505060058201546001600160a01b031660208201526006909101546040909101528251839085908110612cba57612cba613ac0565b60200260200101819052508280612cd090613ad6565b9350505b80612cde81613ad6565b915050612a28565b6002546060908210612d0a5760405162461bcd60e51b8152600401610d8a90613ce7565b60028281548110612d1d57612d1d613ac0565b9060005260206000209060060201600501805480602002602001604051908101604052809291908181526020018280548015612d8257602002820191906000526020600020905b81546001600160a01b03168152600190910190602001808311612d64575b50505050509050919050565b6002548210612daf5760405162461bcd60e51b8152600401610d8a90613ce7565b6001600160a01b03811660009081526020819052604090205460ff16612de75760405162461bcd60e51b8152600401610d8a90613d15565b6001600160a01b0381166000908152600460209081526040808320858452909152902054600114612e515760405162461bcd60e51b815260206004820152601460248201527327379034b73a32b932b9ba1034b99039b437bbb760611b6044820152606401610d8a565b60028281548110612e6457612e64613ac0565b60009182526020909120600690910201600401546001600160a01b03163314612ed95760405162461bcd60e51b815260206004820152602160248201527f4f6e6c7920616e206576656e742063726561746f722063616e20617070726f766044820152606560f81b6064820152608401610d8a565b806001600160a01b031660028381548110612ef657612ef6613ac0565b60009182526020909120600460069092020101546001600160a01b03161461175f5760028281548110612f2b57612f2b613ac0565b6000918252602080832060069290920290910160050180546001810182559083528183200180546001600160a01b0319166001600160a01b03949094169384179055918152600482526040808220938252929091522060039055565b6002546000908210612fab5760405162461bcd60e51b8152600401610d8a90613ce7565b60028281548110612fbe57612fbe613ac0565b60009182526020909120600460069092020101546001600160a01b031692915050565b60606000805b60015481101561306857600460006001838154811061300857613008613ac0565b60009182526020808320600560079093020191909101546001600160a01b031683528281019390935260409182018120878252909252902054600103613056578161305281613ad6565b9250505b8061306081613ad6565b915050612fe7565b5060008167ffffffffffffffff8111156130845761308461365d565b6040519080825280602002602001820160405280156130bd57816020015b6130aa613429565b8152602001906001900390816130a25790505b5090506000915060005b600154811015611ec85760046000600183815481106130e8576130e8613ac0565b60009182526020808320600560079093020191909101546001600160a01b031683528281019390935260409182018120888252909252902054600103613373576001818154811061313b5761313b613ac0565b60009182526020918290206040805160e08101909152600790920201805460ff1615158252600181018054929391929184019161317790613a86565b80601f01602080910402602001604051908101604052809291908181526020018280546131a390613a86565b80156131f05780601f106131c5576101008083540402835291602001916131f0565b820191906000526020600020905b8154815290600101906020018083116131d357829003601f168201915b5050505050815260200160028201805461320990613a86565b80601f016020809104026020016040519081016040528092919081815260200182805461323590613a86565b80156132825780601f1061325757610100808354040283529160200191613282565b820191906000526020600020905b81548152906001019060200180831161326557829003601f168201915b50505050508152602001600382015481526020016004820180546132a590613a86565b80601f01602080910402602001604051908101604052809291908181526020018280546132d190613a86565b801561331e5780601f106132f35761010080835404028352916020019161331e565b820191906000526020600020905b81548152906001019060200180831161330157829003601f168201915b505050918352505060058201546001600160a01b03166020820152600690910154604090910152825183908590811061335957613359613ac0565b6020026020010181905250828061336f90613ad6565b9350505b8061337d81613ad6565b9150506130c7565b6040518060c001604052806000815260200160608152602001606081526020016060815260200160006001600160a01b03168152602001606081525090565b828054828255906000526020600020908101928215613419579160200282015b8281111561341957825182546001600160a01b0319166001600160a01b039091161782556020909201916001909101906133e4565b50613425929150613471565b5090565b6040518060e001604052806000151581526020016060815260200160608152602001600081526020016060815260200160006001600160a01b03168152602001600081525090565b5b808211156134255760008155600101613472565b60006020828403121561349857600080fd5b5035919050565b6000815180845260005b818110156134c5576020818501810151868301820152016134a9565b506000602082860101526020601f19601f83011685010191505092915050565b85815260a0602082015260006134fe60a083018761349f565b8281036040840152613510818761349f565b90508281036060840152613524818661349f565b91505060018060a01b03831660808301529695505050505050565b80518252600060208083015160c08286015261355e60c086018261349f565b905060408401518582036040870152613577828261349f565b91505060608401518582036060870152613591828261349f565b6080868101516001600160a01b039081169189019190915260a080880151898403918a0191909152805180845290860194506000935090918501905b808410156135ef578451831682529385019360019390930192908501906135cd565b50979650505050505050565b6000602080830181845280855180835260408601915060408160051b870101925083870160005b8281101561365057603f1988860301845261363e85835161353f565b94509285019290850190600101613622565b5092979650505050505050565b634e487b7160e01b600052604160045260246000fd5b600082601f83011261368457600080fd5b813567ffffffffffffffff8082111561369f5761369f61365d565b604051601f8301601f19908116603f011681019082821181831017156136c7576136c761365d565b816040528381528660208588010111156136e057600080fd5b836020870160208301376000602085830101528094505050505092915050565b6000806000806080858703121561371657600080fd5b843567ffffffffffffffff8082111561372e57600080fd5b61373a88838901613673565b9550602087013591508082111561375057600080fd5b61375c88838901613673565b945060408701359350606087013591508082111561377957600080fd5b5061378687828801613673565b91505092959194509250565b6020815260006137a5602083018461353f565b9392505050565b80356001600160a01b03811681146137c357600080fd5b919050565b600080604083850312156137db57600080fd5b823591506137eb602084016137ac565b90509250929050565b871515815260e06020820152600061380f60e083018961349f565b8281036040840152613821818961349f565b9050866060840152828103608084015261383b818761349f565b6001600160a01b039590951660a0840152505060c0015295945050505050565b6000806040838503121561386e57600080fd5b613877836137ac565b946020939093013593505050565b60008060006060848603121561389a57600080fd5b833567ffffffffffffffff808211156138b257600080fd5b6138be87838801613673565b945060208601359150808211156138d457600080fd5b6138e087838801613673565b935060408601359150808211156138f657600080fd5b5061390386828701613673565b9150509250925092565b60006020828403121561391f57600080fd5b6137a5826137ac565b8051151582526000602082015160e0602085015261394960e085018261349f565b905060408301518482036040860152613962828261349f565b9150506060830151606085015260808301518482036080860152613986828261349f565b60a0858101516001600160a01b03169087015260c0948501519490950193909352509192915050565b6000602080830181845280855180835260408601915060408160051b870101925083870160005b8281101561365057603f198886030184526139f2858351613928565b945092850192908501906001016139d6565b6020815260006137a56020830184613928565b60008060408385031215613a2a57600080fd5b50508035926020909101359150565b6020808252825182820181905260009190848201906040850190845b81811015613a7a5783516001600160a01b031683529284019291840191600101613a55565b50909695505050505050565b600181811c90821680613a9a57607f821691505b602082108103613aba57634e487b7160e01b600052602260045260246000fd5b50919050565b634e487b7160e01b600052603260045260246000fd5b600060018201613af657634e487b7160e01b600052601160045260246000fd5b5060010190565b601f821115613b4757600081815260208120601f850160051c81016020861015613b245750805b601f850160051c820191505b81811015613b4357828155600101613b30565b5050505b505050565b815167ffffffffffffffff811115613b6657613b6661365d565b613b7a81613b748454613a86565b84613afd565b602080601f831160018114613baf5760008415613b975750858301515b600019600386901b1c1916600185901b178555613b43565b600085815260208120601f198616915b82811015613bde57888601518255948401946001909101908401613bbf565b5085821015613bfc5787850151600019600388901b60f8161c191681555b5050505050600190811b01905550565b818103613c17575050565b613c218254613a86565b67ffffffffffffffff811115613c3957613c3961365d565b613c4781613b748454613a86565b6000601f821160018114613c7b5760008315613c635750848201545b600019600385901b1c1916600184901b178455613ce0565b600085815260209020601f19841690600086815260209020845b83811015613cb55782860154825560019586019590910190602001613c95565b5085831015613cd35781850154600019600388901b60f8161c191681555b50505060018360011b0184555b5050505050565b602080825260149082015273115d995b9d08191bd95cc81b9bdd08195e1a5cdd60621b604082015260600190565b602080825260139082015272155cd95c881b9bdd081c9959da5cdd195c9959606a1b604082015260600190565b6020815260006137a5602083018461349f56fea26469706673582212209dc7d1462d1bd8ee5d431bc7816f0144c729eeefb98d2bca17f47edba670a48564736f6c63430008110033",
  "linkReferences": {},
  "deployedLinkReferences": {}
}