{
  "_format": "hh-sol-artifact-1",
  "contractName": "TripCompanion",
  "sourceName": "contracts/TripCompanion.sol",
  "abi": [
    {
      "inputs": [],
      "stateMutability": "nonpayable",
      "type": "constructor"
    },
    {
      "anonymous": false,
      "inputs": [
        {
          "indexed": true,
          "internalType": "address",
          "name": "owner",
          "type": "address"
        },
        {
          "indexed": true,
          "internalType": "address",
          "name": "approved",
          "type": "address"
        },
        {
          "indexed": true,
          "internalType": "uint256",
          "name": "tokenId",
          "type": "uint256"
        }
      ],
      "name": "Approval",
      "type": "event"
    },
    {
      "anonymous": false,
      "inputs": [
        {
          "indexed": true,
          "internalType": "address",
          "name": "owner",
          "type": "address"
        },
        {
          "indexed": true,
          "internalType": "address",
          "name": "operator",
          "type": "address"
        },
        {
          "indexed": false,
          "internalType": "bool",
          "name": "approved",
          "type": "bool"
        }
      ],
      "name": "ApprovalForAll",
      "type": "event"
    },
    {
      "anonymous": false,
      "inputs": [
        {
          "indexed": false,
          "internalType": "uint256",
          "name": "_fromTokenId",
          "type": "uint256"
        },
        {
          "indexed": false,
          "internalType": "uint256",
          "name": "_toTokenId",
          "type": "uint256"
        }
      ],
      "name": "BatchMetadataUpdate",
      "type": "event"
    },
    {
      "anonymous": false,
      "inputs": [
        {
          "indexed": false,
          "internalType": "uint256",
          "name": "eventId",
          "type": "uint256"
        },
        {
          "indexed": false,
          "internalType": "string",
          "name": "destination",
          "type": "string"
        },
        {
          "indexed": false,
          "internalType": "string",
          "name": "date",
          "type": "string"
        },
        {
          "indexed": false,
          "internalType": "string",
          "name": "name",
          "type": "string"
        },
        {
          "indexed": false,
          "internalType": "address",
          "name": "creator",
          "type": "address"
        },
        {
          "indexed": false,
          "internalType": "bool",
          "name": "nftsGiven",
          "type": "bool"
        }
      ],
      "name": "EventEvent",
      "type": "event"
    },
    {
      "anonymous": false,
      "inputs": [
        {
          "indexed": false,
          "internalType": "address",
          "name": "userAddress",
          "type": "address"
        },
        {
          "indexed": false,
          "internalType": "uint256",
          "name": "eventId",
          "type": "uint256"
        },
        {
          "indexed": false,
          "internalType": "uint256",
          "name": "status",
          "type": "uint256"
        }
      ],
      "name": "InterestData",
      "type": "event"
    },
    {
      "anonymous": false,
      "inputs": [
        {
          "indexed": false,
          "internalType": "uint256",
          "name": "_tokenId",
          "type": "uint256"
        }
      ],
      "name": "MetadataUpdate",
      "type": "event"
    },
    {
      "anonymous": false,
      "inputs": [
        {
          "indexed": false,
          "internalType": "uint256",
          "name": "eventId",
          "type": "uint256"
        },
        {
          "indexed": false,
          "internalType": "uint256",
          "name": "itemId",
          "type": "uint256"
        },
        {
          "indexed": false,
          "internalType": "address",
          "name": "owner",
          "type": "address"
        },
        {
          "indexed": false,
          "internalType": "string",
          "name": "eventName",
          "type": "string"
        },
        {
          "indexed": false,
          "internalType": "string",
          "name": "cid",
          "type": "string"
        }
      ],
      "name": "PoapEvent",
      "type": "event"
    },
    {
      "anonymous": false,
      "inputs": [
        {
          "indexed": true,
          "internalType": "address",
          "name": "from",
          "type": "address"
        },
        {
          "indexed": true,
          "internalType": "address",
          "name": "to",
          "type": "address"
        },
        {
          "indexed": true,
          "internalType": "uint256",
          "name": "tokenId",
          "type": "uint256"
        }
      ],
      "name": "Transfer",
      "type": "event"
    },
    {
      "anonymous": false,
      "inputs": [
        {
          "indexed": false,
          "internalType": "bool",
          "name": "registered",
          "type": "bool"
        },
        {
          "indexed": false,
          "internalType": "string",
          "name": "name",
          "type": "string"
        },
        {
          "indexed": false,
          "internalType": "string",
          "name": "bio",
          "type": "string"
        },
        {
          "indexed": false,
          "internalType": "address",
          "name": "walletAddress",
          "type": "address"
        },
        {
          "indexed": false,
          "internalType": "uint256",
          "name": "requestStatus",
          "type": "uint256"
        },
        {
          "indexed": false,
          "internalType": "bool",
          "name": "isVerified",
          "type": "bool"
        },
        {
          "indexed": false,
          "internalType": "uint256",
          "name": "gender",
          "type": "uint256"
        },
        {
          "indexed": false,
          "internalType": "bool",
          "name": "ageFlag",
          "type": "bool"
        },
        {
          "indexed": false,
          "internalType": "string",
          "name": "profilePic",
          "type": "string"
        }
      ],
      "name": "UserEvent",
      "type": "event"
    },
    {
      "inputs": [
        {
          "internalType": "uint256",
          "name": "",
          "type": "uint256"
        }
      ],
      "name": "allUserList",
      "outputs": [
        {
          "internalType": "bool",
          "name": "registered",
          "type": "bool"
        },
        {
          "internalType": "string",
          "name": "name",
          "type": "string"
        },
        {
          "internalType": "string",
          "name": "bio",
          "type": "string"
        },
        {
          "internalType": "address",
          "name": "walletAddress",
          "type": "address"
        },
        {
          "internalType": "uint256",
          "name": "requestStatus",
          "type": "uint256"
        },
        {
          "internalType": "bool",
          "name": "isVerified",
          "type": "bool"
        },
        {
          "internalType": "uint256",
          "name": "gender",
          "type": "uint256"
        },
        {
          "internalType": "bool",
          "name": "ageFlag",
          "type": "bool"
        },
        {
          "internalType": "string",
          "name": "profilePic",
          "type": "string"
        }
      ],
      "stateMutability": "view",
      "type": "function"
    },
    {
      "inputs": [
        {
          "internalType": "address",
          "name": "to",
          "type": "address"
        },
        {
          "internalType": "uint256",
          "name": "tokenId",
          "type": "uint256"
        }
      ],
      "name": "approve",
      "outputs": [],
      "stateMutability": "nonpayable",
      "type": "function"
    },
    {
      "inputs": [
        {
          "internalType": "uint256",
          "name": "_eventId",
          "type": "uint256"
        },
        {
          "internalType": "address",
          "name": "_user",
          "type": "address"
        }
      ],
      "name": "approveInterest",
      "outputs": [],
      "stateMutability": "nonpayable",
      "type": "function"
    },
    {
      "inputs": [
        {
          "internalType": "address",
          "name": "owner",
          "type": "address"
        }
      ],
      "name": "balanceOf",
      "outputs": [
        {
          "internalType": "uint256",
          "name": "",
          "type": "uint256"
        }
      ],
      "stateMutability": "view",
      "type": "function"
    },
    {
      "inputs": [
        {
          "internalType": "string",
          "name": "curHash",
          "type": "string"
        }
      ],
      "name": "checkHashExists",
      "outputs": [
        {
          "internalType": "bool",
          "name": "",
          "type": "bool"
        }
      ],
      "stateMutability": "view",
      "type": "function"
    },
    {
      "inputs": [
        {
          "internalType": "string",
          "name": "a",
          "type": "string"
        },
        {
          "internalType": "string",
          "name": "b",
          "type": "string"
        }
      ],
      "name": "compareStrings",
      "outputs": [
        {
          "internalType": "bool",
          "name": "",
          "type": "bool"
        }
      ],
      "stateMutability": "view",
      "type": "function"
    },
    {
      "inputs": [
        {
          "internalType": "string",
          "name": "_destination",
          "type": "string"
        },
        {
          "internalType": "string",
          "name": "_date",
          "type": "string"
        },
        {
          "internalType": "string",
          "name": "_name",
          "type": "string"
        }
      ],
      "name": "createEvent",
      "outputs": [],
      "stateMutability": "nonpayable",
      "type": "function"
    },
    {
      "inputs": [],
      "name": "eventIdCounter",
      "outputs": [
        {
          "internalType": "uint256",
          "name": "",
          "type": "uint256"
        }
      ],
      "stateMutability": "view",
      "type": "function"
    },
    {
      "inputs": [
        {
          "internalType": "uint256",
          "name": "",
          "type": "uint256"
        },
        {
          "internalType": "uint256",
          "name": "",
          "type": "uint256"
        }
      ],
      "name": "eventToUserMapping",
      "outputs": [
        {
          "internalType": "address",
          "name": "",
          "type": "address"
        }
      ],
      "stateMutability": "view",
      "type": "function"
    },
    {
      "inputs": [
        {
          "internalType": "uint256",
          "name": "",
          "type": "uint256"
        }
      ],
      "name": "events",
      "outputs": [
        {
          "internalType": "uint256",
          "name": "eventId",
          "type": "uint256"
        },
        {
          "internalType": "string",
          "name": "destination",
          "type": "string"
        },
        {
          "internalType": "string",
          "name": "date",
          "type": "string"
        },
        {
          "internalType": "string",
          "name": "name",
          "type": "string"
        },
        {
          "internalType": "address",
          "name": "creator",
          "type": "address"
        },
        {
          "internalType": "bool",
          "name": "nftsGiven",
          "type": "bool"
        }
      ],
      "stateMutability": "view",
      "type": "function"
    },
    {
      "inputs": [
        {
          "internalType": "address",
          "name": "userAddress",
          "type": "address"
        }
      ],
      "name": "fetchUser",
      "outputs": [
        {
          "components": [
            {
              "internalType": "bool",
              "name": "registered",
              "type": "bool"
            },
            {
              "internalType": "string",
              "name": "name",
              "type": "string"
            },
            {
              "internalType": "string",
              "name": "bio",
              "type": "string"
            },
            {
              "internalType": "address",
              "name": "walletAddress",
              "type": "address"
            },
            {
              "internalType": "uint256",
              "name": "requestStatus",
              "type": "uint256"
            },
            {
              "internalType": "bool",
              "name": "isVerified",
              "type": "bool"
            },
            {
              "internalType": "uint256",
              "name": "gender",
              "type": "uint256"
            },
            {
              "internalType": "bool",
              "name": "ageFlag",
              "type": "bool"
            },
            {
              "internalType": "string",
              "name": "profilePic",
              "type": "string"
            }
          ],
          "internalType": "struct TripCompanion.User",
          "name": "",
          "type": "tuple"
        }
      ],
      "stateMutability": "view",
      "type": "function"
    },
    {
      "inputs": [],
      "name": "getAllEvents",
      "outputs": [
        {
          "components": [
            {
              "internalType": "uint256",
              "name": "eventId",
              "type": "uint256"
            },
            {
              "internalType": "string",
              "name": "destination",
              "type": "string"
            },
            {
              "internalType": "string",
              "name": "date",
              "type": "string"
            },
            {
              "internalType": "string",
              "name": "name",
              "type": "string"
            },
            {
              "internalType": "address",
              "name": "creator",
              "type": "address"
            },
            {
              "internalType": "bool",
              "name": "nftsGiven",
              "type": "bool"
            }
          ],
          "internalType": "struct TripCompanion.Event[]",
          "name": "",
          "type": "tuple[]"
        }
      ],
      "stateMutability": "view",
      "type": "function"
    },
    {
      "inputs": [
        {
          "internalType": "uint256",
          "name": "tokenId",
          "type": "uint256"
        }
      ],
      "name": "getApproved",
      "outputs": [
        {
          "internalType": "address",
          "name": "",
          "type": "address"
        }
      ],
      "stateMutability": "view",
      "type": "function"
    },
    {
      "inputs": [],
      "name": "getApprovedEvents",
      "outputs": [
        {
          "components": [
            {
              "internalType": "uint256",
              "name": "eventId",
              "type": "uint256"
            },
            {
              "internalType": "string",
              "name": "destination",
              "type": "string"
            },
            {
              "internalType": "string",
              "name": "date",
              "type": "string"
            },
            {
              "internalType": "string",
              "name": "name",
              "type": "string"
            },
            {
              "internalType": "address",
              "name": "creator",
              "type": "address"
            },
            {
              "internalType": "bool",
              "name": "nftsGiven",
              "type": "bool"
            }
          ],
          "internalType": "struct TripCompanion.Event[]",
          "name": "",
          "type": "tuple[]"
        }
      ],
      "stateMutability": "view",
      "type": "function"
    },
    {
      "inputs": [
        {
          "internalType": "uint256",
          "name": "_eventId",
          "type": "uint256"
        }
      ],
      "name": "getApprovedUsers",
      "outputs": [
        {
          "components": [
            {
              "internalType": "bool",
              "name": "registered",
              "type": "bool"
            },
            {
              "internalType": "string",
              "name": "name",
              "type": "string"
            },
            {
              "internalType": "string",
              "name": "bio",
              "type": "string"
            },
            {
              "internalType": "address",
              "name": "walletAddress",
              "type": "address"
            },
            {
              "internalType": "uint256",
              "name": "requestStatus",
              "type": "uint256"
            },
            {
              "internalType": "bool",
              "name": "isVerified",
              "type": "bool"
            },
            {
              "internalType": "uint256",
              "name": "gender",
              "type": "uint256"
            },
            {
              "internalType": "bool",
              "name": "ageFlag",
              "type": "bool"
            },
            {
              "internalType": "string",
              "name": "profilePic",
              "type": "string"
            }
          ],
          "internalType": "struct TripCompanion.User[]",
          "name": "",
          "type": "tuple[]"
        }
      ],
      "stateMutability": "view",
      "type": "function"
    },
    {
      "inputs": [
        {
          "internalType": "uint256",
          "name": "_eventId",
          "type": "uint256"
        }
      ],
      "name": "getEvent",
      "outputs": [
        {
          "components": [
            {
              "internalType": "uint256",
              "name": "eventId",
              "type": "uint256"
            },
            {
              "internalType": "string",
              "name": "destination",
              "type": "string"
            },
            {
              "internalType": "string",
              "name": "date",
              "type": "string"
            },
            {
              "internalType": "string",
              "name": "name",
              "type": "string"
            },
            {
              "internalType": "address",
              "name": "creator",
              "type": "address"
            },
            {
              "internalType": "bool",
              "name": "nftsGiven",
              "type": "bool"
            }
          ],
          "internalType": "struct TripCompanion.Event",
          "name": "",
          "type": "tuple"
        }
      ],
      "stateMutability": "view",
      "type": "function"
    },
    {
      "inputs": [
        {
          "internalType": "uint256",
          "name": "_eventId",
          "type": "uint256"
        }
      ],
      "name": "getEventOwner",
      "outputs": [
        {
          "internalType": "address",
          "name": "",
          "type": "address"
        }
      ],
      "stateMutability": "view",
      "type": "function"
    },
    {
      "inputs": [
        {
          "internalType": "address",
          "name": "_user",
          "type": "address"
        }
      ],
      "name": "getEvents",
      "outputs": [
        {
          "components": [
            {
              "internalType": "uint256",
              "name": "eventId",
              "type": "uint256"
            },
            {
              "internalType": "string",
              "name": "destination",
              "type": "string"
            },
            {
              "internalType": "string",
              "name": "date",
              "type": "string"
            },
            {
              "internalType": "string",
              "name": "name",
              "type": "string"
            },
            {
              "internalType": "address",
              "name": "creator",
              "type": "address"
            },
            {
              "internalType": "bool",
              "name": "nftsGiven",
              "type": "bool"
            }
          ],
          "internalType": "struct TripCompanion.Event[]",
          "name": "",
          "type": "tuple[]"
        }
      ],
      "stateMutability": "view",
      "type": "function"
    },
    {
      "inputs": [],
      "name": "getInterestedEvents",
      "outputs": [
        {
          "components": [
            {
              "internalType": "uint256",
              "name": "eventId",
              "type": "uint256"
            },
            {
              "internalType": "string",
              "name": "destination",
              "type": "string"
            },
            {
              "internalType": "string",
              "name": "date",
              "type": "string"
            },
            {
              "internalType": "string",
              "name": "name",
              "type": "string"
            },
            {
              "internalType": "address",
              "name": "creator",
              "type": "address"
            },
            {
              "internalType": "bool",
              "name": "nftsGiven",
              "type": "bool"
            }
          ],
          "internalType": "struct TripCompanion.Event[]",
          "name": "",
          "type": "tuple[]"
        }
      ],
      "stateMutability": "view",
      "type": "function"
    },
    {
      "inputs": [
        {
          "internalType": "uint256",
          "name": "_eventId",
          "type": "uint256"
        }
      ],
      "name": "getInterestedUsers",
      "outputs": [
        {
          "components": [
            {
              "internalType": "bool",
              "name": "registered",
              "type": "bool"
            },
            {
              "internalType": "string",
              "name": "name",
              "type": "string"
            },
            {
              "internalType": "string",
              "name": "bio",
              "type": "string"
            },
            {
              "internalType": "address",
              "name": "walletAddress",
              "type": "address"
            },
            {
              "internalType": "uint256",
              "name": "requestStatus",
              "type": "uint256"
            },
            {
              "internalType": "bool",
              "name": "isVerified",
              "type": "bool"
            },
            {
              "internalType": "uint256",
              "name": "gender",
              "type": "uint256"
            },
            {
              "internalType": "bool",
              "name": "ageFlag",
              "type": "bool"
            },
            {
              "internalType": "string",
              "name": "profilePic",
              "type": "string"
            }
          ],
          "internalType": "struct TripCompanion.User[]",
          "name": "",
          "type": "tuple[]"
        }
      ],
      "stateMutability": "view",
      "type": "function"
    },
    {
      "inputs": [],
      "name": "getRejectedEvents",
      "outputs": [
        {
          "components": [
            {
              "internalType": "uint256",
              "name": "eventId",
              "type": "uint256"
            },
            {
              "internalType": "string",
              "name": "destination",
              "type": "string"
            },
            {
              "internalType": "string",
              "name": "date",
              "type": "string"
            },
            {
              "internalType": "string",
              "name": "name",
              "type": "string"
            },
            {
              "internalType": "address",
              "name": "creator",
              "type": "address"
            },
            {
              "internalType": "bool",
              "name": "nftsGiven",
              "type": "bool"
            }
          ],
          "internalType": "struct TripCompanion.Event[]",
          "name": "",
          "type": "tuple[]"
        }
      ],
      "stateMutability": "view",
      "type": "function"
    },
    {
      "inputs": [
        {
          "internalType": "uint256",
          "name": "_eventId",
          "type": "uint256"
        }
      ],
      "name": "getRejectedUsers",
      "outputs": [
        {
          "components": [
            {
              "internalType": "bool",
              "name": "registered",
              "type": "bool"
            },
            {
              "internalType": "string",
              "name": "name",
              "type": "string"
            },
            {
              "internalType": "string",
              "name": "bio",
              "type": "string"
            },
            {
              "internalType": "address",
              "name": "walletAddress",
              "type": "address"
            },
            {
              "internalType": "uint256",
              "name": "requestStatus",
              "type": "uint256"
            },
            {
              "internalType": "bool",
              "name": "isVerified",
              "type": "bool"
            },
            {
              "internalType": "uint256",
              "name": "gender",
              "type": "uint256"
            },
            {
              "internalType": "bool",
              "name": "ageFlag",
              "type": "bool"
            },
            {
              "internalType": "string",
              "name": "profilePic",
              "type": "string"
            }
          ],
          "internalType": "struct TripCompanion.User[]",
          "name": "",
          "type": "tuple[]"
        }
      ],
      "stateMutability": "view",
      "type": "function"
    },
    {
      "inputs": [
        {
          "internalType": "uint256",
          "name": "eventId",
          "type": "uint256"
        },
        {
          "internalType": "address[]",
          "name": "users",
          "type": "address[]"
        },
        {
          "internalType": "string[]",
          "name": "tokenURI",
          "type": "string[]"
        }
      ],
      "name": "giveNFTsToApprovedUsers",
      "outputs": [],
      "stateMutability": "nonpayable",
      "type": "function"
    },
    {
      "inputs": [
        {
          "internalType": "address",
          "name": "",
          "type": "address"
        },
        {
          "internalType": "uint256",
          "name": "",
          "type": "uint256"
        }
      ],
      "name": "interested",
      "outputs": [
        {
          "internalType": "uint256",
          "name": "",
          "type": "uint256"
        }
      ],
      "stateMutability": "view",
      "type": "function"
    },
    {
      "inputs": [
        {
          "internalType": "address",
          "name": "owner",
          "type": "address"
        },
        {
          "internalType": "address",
          "name": "operator",
          "type": "address"
        }
      ],
      "name": "isApprovedForAll",
      "outputs": [
        {
          "internalType": "bool",
          "name": "",
          "type": "bool"
        }
      ],
      "stateMutability": "view",
      "type": "function"
    },
    {
      "inputs": [],
      "name": "isUserRegistered",
      "outputs": [
        {
          "internalType": "bool",
          "name": "",
          "type": "bool"
        }
      ],
      "stateMutability": "view",
      "type": "function"
    },
    {
      "inputs": [
        {
          "internalType": "uint256",
          "name": "eventId",
          "type": "uint256"
        },
        {
          "internalType": "address",
          "name": "userAddress",
          "type": "address"
        },
        {
          "internalType": "string",
          "name": "eventName",
          "type": "string"
        },
        {
          "internalType": "string",
          "name": "tokenURI",
          "type": "string"
        }
      ],
      "name": "mint",
      "outputs": [],
      "stateMutability": "nonpayable",
      "type": "function"
    },
    {
      "inputs": [],
      "name": "name",
      "outputs": [
        {
          "internalType": "string",
          "name": "",
          "type": "string"
        }
      ],
      "stateMutability": "view",
      "type": "function"
    },
    {
      "inputs": [
        {
          "internalType": "uint256",
          "name": "tokenId",
          "type": "uint256"
        }
      ],
      "name": "ownerOf",
      "outputs": [
        {
          "internalType": "address",
          "name": "",
          "type": "address"
        }
      ],
      "stateMutability": "view",
      "type": "function"
    },
    {
      "inputs": [
        {
          "internalType": "string",
          "name": "_name",
          "type": "string"
        },
        {
          "internalType": "string",
          "name": "_bio",
          "type": "string"
        },
        {
          "internalType": "string",
          "name": "_profilePic",
          "type": "string"
        }
      ],
      "name": "registerUser",
      "outputs": [],
      "stateMutability": "nonpayable",
      "type": "function"
    },
    {
      "inputs": [
        {
          "internalType": "uint256",
          "name": "_eventId",
          "type": "uint256"
        },
        {
          "internalType": "address",
          "name": "_user",
          "type": "address"
        }
      ],
      "name": "rejectInterest",
      "outputs": [],
      "stateMutability": "nonpayable",
      "type": "function"
    },
    {
      "inputs": [
        {
          "internalType": "address",
          "name": "from",
          "type": "address"
        },
        {
          "internalType": "address",
          "name": "to",
          "type": "address"
        },
        {
          "internalType": "uint256",
          "name": "tokenId",
          "type": "uint256"
        }
      ],
      "name": "safeTransferFrom",
      "outputs": [],
      "stateMutability": "nonpayable",
      "type": "function"
    },
    {
      "inputs": [
        {
          "internalType": "address",
          "name": "from",
          "type": "address"
        },
        {
          "internalType": "address",
          "name": "to",
          "type": "address"
        },
        {
          "internalType": "uint256",
          "name": "tokenId",
          "type": "uint256"
        },
        {
          "internalType": "bytes",
          "name": "data",
          "type": "bytes"
        }
      ],
      "name": "safeTransferFrom",
      "outputs": [],
      "stateMutability": "nonpayable",
      "type": "function"
    },
    {
      "inputs": [
        {
          "internalType": "address",
          "name": "operator",
          "type": "address"
        },
        {
          "internalType": "bool",
          "name": "approved",
          "type": "bool"
        }
      ],
      "name": "setApprovalForAll",
      "outputs": [],
      "stateMutability": "nonpayable",
      "type": "function"
    },
    {
      "inputs": [
        {
          "internalType": "uint256",
          "name": "_eventId",
          "type": "uint256"
        }
      ],
      "name": "showInterest",
      "outputs": [],
      "stateMutability": "nonpayable",
      "type": "function"
    },
    {
      "inputs": [
        {
          "internalType": "bytes4",
          "name": "interfaceId",
          "type": "bytes4"
        }
      ],
      "name": "supportsInterface",
      "outputs": [
        {
          "internalType": "bool",
          "name": "",
          "type": "bool"
        }
      ],
      "stateMutability": "view",
      "type": "function"
    },
    {
      "inputs": [],
      "name": "symbol",
      "outputs": [
        {
          "internalType": "string",
          "name": "",
          "type": "string"
        }
      ],
      "stateMutability": "view",
      "type": "function"
    },
    {
      "inputs": [
        {
          "internalType": "uint256",
          "name": "tokenId",
          "type": "uint256"
        }
      ],
      "name": "tokenURI",
      "outputs": [
        {
          "internalType": "string",
          "name": "",
          "type": "string"
        }
      ],
      "stateMutability": "view",
      "type": "function"
    },
    {
      "inputs": [
        {
          "internalType": "address",
          "name": "from",
          "type": "address"
        },
        {
          "internalType": "address",
          "name": "to",
          "type": "address"
        },
        {
          "internalType": "uint256",
          "name": "tokenId",
          "type": "uint256"
        }
      ],
      "name": "transferFrom",
      "outputs": [],
      "stateMutability": "nonpayable",
      "type": "function"
    },
    {
      "inputs": [
        {
          "internalType": "string",
          "name": "profilePic",
          "type": "string"
        }
      ],
      "name": "updateProfilePic",
      "outputs": [],
      "stateMutability": "nonpayable",
      "type": "function"
    },
    {
      "inputs": [
        {
          "internalType": "address",
          "name": "",
          "type": "address"
        }
      ],
      "name": "users",
      "outputs": [
        {
          "internalType": "bool",
          "name": "registered",
          "type": "bool"
        },
        {
          "internalType": "string",
          "name": "name",
          "type": "string"
        },
        {
          "internalType": "string",
          "name": "bio",
          "type": "string"
        },
        {
          "internalType": "address",
          "name": "walletAddress",
          "type": "address"
        },
        {
          "internalType": "uint256",
          "name": "requestStatus",
          "type": "uint256"
        },
        {
          "internalType": "bool",
          "name": "isVerified",
          "type": "bool"
        },
        {
          "internalType": "uint256",
          "name": "gender",
          "type": "uint256"
        },
        {
          "internalType": "bool",
          "name": "ageFlag",
          "type": "bool"
        },
        {
          "internalType": "string",
          "name": "profilePic",
          "type": "string"
        }
      ],
      "stateMutability": "view",
      "type": "function"
    },
    {
      "inputs": [
        {
          "internalType": "string",
          "name": "curHash",
          "type": "string"
        },
        {
          "internalType": "uint256",
          "name": "gender",
          "type": "uint256"
        },
        {
          "internalType": "bool",
          "name": "ageFlag",
          "type": "bool"
        }
      ],
      "name": "verifyUser",
      "outputs": [],
      "stateMutability": "nonpayable",
      "type": "function"
    },
    {
      "stateMutability": "payable",
      "type": "receive"
    }
  ],
  "bytecode": "0x60806040526000600b553480156200001657600080fd5b506040518060400160405280600d81526020016c2a3934b821b7b6b830b734b7b760991b8152506040518060400160405280600381526020016254504360e81b81525081600090816200006a919062000127565b50600162000079828262000127565b505050620001f3565b634e487b7160e01b600052604160045260246000fd5b600181811c90821680620000ad57607f821691505b602082108103620000ce57634e487b7160e01b600052602260045260246000fd5b50919050565b601f8211156200012257600081815260208120601f850160051c81016020861015620000fd5750805b601f850160051c820191505b818110156200011e5782815560010162000109565b5050505b505050565b81516001600160401b0381111562000143576200014362000082565b6200015b8162000154845462000098565b84620000d4565b602080601f8311600181146200019357600084156200017a5750858301515b600019600386901b1c1916600185901b1785556200011e565b600085815260208120601f198616915b82811015620001c457888601518255948401946001909101908401620001a3565b5085821015620001e35787850151600019600388901b60f8161c191681555b5050505050600190811b01905550565b615c2880620002036000396000f3fe6080604052600436106102555760003560e01c80639e8ea19811610139578063c27a500d116100b6578063e932ad191161007a578063e932ad1914610747578063e985e9c514610767578063f2cf391c146107b0578063fe210f69146107d0578063ff458a4b146107f0578063ffa216af1461081057600080fd5b8063c27a500d146106bc578063c6c65fda146106d1578063c87b56dd146106f1578063d637dcfa14610711578063e01a0ebe1461073157600080fd5b8063b88d4fde116100fd578063b88d4fde14610602578063b8ac6b5c14610622578063be6f0ea21461064f578063bed34bba1461067c578063bf0d9d081461069c57600080fd5b80639e8ea19814610562578063a22cb46514610582578063a4c8b6e3146105a2578063a87430ba146105c2578063a87532e3146105e257600080fd5b80636352211e116101d25780637453d952116101965780637453d9521461048b578063858a0d0b146104ab578063873138f3146104e057806395d89b41146104f557806399f76c7d1461050a5780639b503fd81461054257600080fd5b80636352211e146103db5780636d1884e0146103fb5780636f812e511461042857806370a082311461044857806373b30b8b1461047657600080fd5b80631798a5e4116102195780631798a5e4146103445780631c97580b1461036457806323b872dd146103865780633a4e4462146103a657806342842e0e146103bb57600080fd5b806301ffc9a71461026157806306fdde0314610296578063081812fc146102b8578063095ea7b3146102f05780630b7914301461031257600080fd5b3661025c57005b600080fd5b34801561026d57600080fd5b5061028161027c366004614c3a565b610830565b60405190151581526020015b60405180910390f35b3480156102a257600080fd5b506102ab61085b565b60405161028d9190614ca7565b3480156102c457600080fd5b506102d86102d3366004614cba565b6108ed565b6040516001600160a01b03909116815260200161028d565b3480156102fc57600080fd5b5061031061030b366004614cef565b610914565b005b34801561031e57600080fd5b5061033261032d366004614cba565b610a2e565b60405161028d96959493929190614d19565b34801561035057600080fd5b5061031061035f366004614eeb565b610c1e565b34801561037057600080fd5b50610379610e43565b60405161028d9190615032565b34801561039257600080fd5b506103106103a1366004615094565b6111d1565b3480156103b257600080fd5b50610379611202565b3480156103c757600080fd5b506103106103d6366004615094565b611589565b3480156103e757600080fd5b506102d86103f6366004614cba565b6115a4565b34801561040757600080fd5b5061041b610416366004614cba565b611604565b60405161028d91906150d0565b34801561043457600080fd5b506103106104433660046150f3565b611849565b34801561045457600080fd5b50610468610463366004615149565b611928565b60405190815260200161028d565b34801561048257600080fd5b506103796119ae565b34801561049757600080fd5b506103106104a6366004615164565b611d35565b3480156104b757600080fd5b506104cb6104c6366004614cba565b611f5c565b60405161028d99989796959493929190615190565b3480156104ec57600080fd5b50610281612167565b34801561050157600080fd5b506102ab61218f565b34801561051657600080fd5b50610468610525366004614cef565b600f60209081526000928352604080842090915290825290205481565b34801561054e57600080fd5b5061031061055d366004615212565b61219e565b34801561056e57600080fd5b5061031061057d36600461528f565b612363565b34801561058e57600080fd5b5061031061059d3660046152c3565b61240c565b3480156105ae57600080fd5b506103796105bd366004615149565b612417565b3480156105ce57600080fd5b506104cb6105dd366004615149565b612788565b3480156105ee57600080fd5b506103106105fd366004614cba565b6127ae565b34801561060e57600080fd5b5061031061061d3660046152ed565b612964565b34801561062e57600080fd5b5061064261063d366004614cba565b612996565b60405161028d9190615420565b34801561065b57600080fd5b5061066f61066a366004615149565b612d59565b60405161028d9190615475565b34801561068857600080fd5b50610281610697366004615488565b612fea565b3480156106a857600080fd5b506102d86106b73660046154eb565b613043565b3480156106c857600080fd5b5061037961307b565b3480156106dd57600080fd5b506106426106ec366004614cba565b6132ca565b3480156106fd57600080fd5b506102ab61070c366004614cba565b613685565b34801561071d57600080fd5b5061031061072c366004615212565b613795565b34801561073d57600080fd5b50610468600b5481565b34801561075357600080fd5b5061031061076236600461550d565b613a76565b34801561077357600080fd5b5061028161078236600461557e565b6001600160a01b03918216600090815260056020908152604080832093909416825291909152205460ff1690565b3480156107bc57600080fd5b506103106107cb366004615164565b613b7f565b3480156107dc57600080fd5b506102d86107eb366004614cba565b613da7565b3480156107fc57600080fd5b5061028161080b36600461528f565b613e01565b34801561081c57600080fd5b5061064261082b366004614cba565b613e94565b60006001600160e01b03198216632483248360e11b1480610855575061085582614257565b92915050565b60606000805461086a906155a8565b80601f0160208091040260200160405190810160405280929190818152602001828054610896906155a8565b80156108e35780601f106108b8576101008083540402835291602001916108e3565b820191906000526020600020905b8154815290600101906020018083116108c657829003601f168201915b5050505050905090565b60006108f8826142a7565b506000908152600460205260409020546001600160a01b031690565b600061091f826115a4565b9050806001600160a01b0316836001600160a01b0316036109915760405162461bcd60e51b815260206004820152602160248201527f4552433732313a20617070726f76616c20746f2063757272656e74206f776e656044820152603960f91b60648201526084015b60405180910390fd5b336001600160a01b03821614806109ad57506109ad8133610782565b610a1f5760405162461bcd60e51b815260206004820152603d60248201527f4552433732313a20617070726f76652063616c6c6572206973206e6f7420746f60448201527f6b656e206f776e6572206f7220617070726f76656420666f7220616c6c0000006064820152608401610988565b610a298383614309565b505050565b600a8181548110610a3e57600080fd5b60009182526020909120600590910201805460018201805491935090610a63906155a8565b80601f0160208091040260200160405190810160405280929190818152602001828054610a8f906155a8565b8015610adc5780601f10610ab157610100808354040283529160200191610adc565b820191906000526020600020905b815481529060010190602001808311610abf57829003601f168201915b505050505090806002018054610af1906155a8565b80601f0160208091040260200160405190810160405280929190818152602001828054610b1d906155a8565b8015610b6a5780601f10610b3f57610100808354040283529160200191610b6a565b820191906000526020600020905b815481529060010190602001808311610b4d57829003601f168201915b505050505090806003018054610b7f906155a8565b80601f0160208091040260200160405190810160405280929190818152602001828054610bab906155a8565b8015610bf85780601f10610bcd57610100808354040283529160200191610bf8565b820191906000526020600020905b815481529060010190602001808311610bdb57829003601f168201915b505050600490930154919250506001600160a01b0381169060ff600160a01b9091041686565b60005b8251811015610d2657610d1484848381518110610c4057610c406155e2565b6020026020010151600a8781548110610c5b57610c5b6155e2565b90600052602060002090600502016003018054610c77906155a8565b80601f0160208091040260200160405190810160405280929190818152602001828054610ca3906155a8565b8015610cf05780601f10610cc557610100808354040283529160200191610cf0565b820191906000526020600020905b815481529060010190602001808311610cd357829003601f168201915b5050505050858581518110610d0757610d076155e2565b6020026020010151613a76565b80610d1e816155f8565b915050610c21565b506001600a8481548110610d3c57610d3c6155e2565b906000526020600020906005020160040160146101000a81548160ff0219169083151502179055507f92a5765aa9d1a333468316385e321d9a80cea3b05b316f186f40d0d00b23a65583600a8581548110610d9957610d996155e2565b9060005260206000209060050201600101600a8681548110610dbd57610dbd6155e2565b9060005260206000209060050201600201600a8781548110610de157610de16155e2565b9060005260206000209060050201600301600a8881548110610e0557610e056155e2565b6000918252602090912060046005909202010154604051610e3695949392916001600160a01b03169060019061569c565b60405180910390a1505050565b60606000805b600a54811015610ec157336000908152600f60205260408120600a805491929184908110610e7957610e796155e2565b906000526020600020906005020160000154815260200190815260200160002054600303610eaf5781610eab816155f8565b9250505b80610eb9816155f8565b915050610e49565b506000816001600160401b03811115610edc57610edc614d7c565b604051908082528060200260200182016040528015610f1557816020015b610f02614b88565b815260200190600190039081610efa5790505b5090506000915060005b600a548110156111ca57336000908152600f60205260408120600a805491929184908110610f4f57610f4f6155e2565b9060005260206000209060050201600001548152602001908152602001600020546003036111b857600a8181548110610f8a57610f8a6155e2565b90600052602060002090600502016040518060c001604052908160008201548152602001600182018054610fbd906155a8565b80601f0160208091040260200160405190810160405280929190818152602001828054610fe9906155a8565b80156110365780601f1061100b57610100808354040283529160200191611036565b820191906000526020600020905b81548152906001019060200180831161101957829003601f168201915b5050505050815260200160028201805461104f906155a8565b80601f016020809104026020016040519081016040528092919081815260200182805461107b906155a8565b80156110c85780601f1061109d576101008083540402835291602001916110c8565b820191906000526020600020905b8154815290600101906020018083116110ab57829003601f168201915b505050505081526020016003820180546110e1906155a8565b80601f016020809104026020016040519081016040528092919081815260200182805461110d906155a8565b801561115a5780601f1061112f5761010080835404028352916020019161115a565b820191906000526020600020905b81548152906001019060200180831161113d57829003601f168201915b5050509183525050600491909101546001600160a01b0381166020830152600160a01b900460ff161515604090910152825183908590811061119e5761119e6155e2565b602002602001018190525082806111b4906155f8565b9350505b806111c2816155f8565b915050610f1f565b5092915050565b6111db3382614377565b6111f75760405162461bcd60e51b8152600401610988906156db565b610a298383836143f5565b60606000805b600a5481101561128057336000908152600f60205260408120600a805491929184908110611238576112386155e2565b90600052602060002090600502016000015481526020019081526020016000205460010361126e578161126a816155f8565b9250505b80611278816155f8565b915050611208565b506000816001600160401b0381111561129b5761129b614d7c565b6040519080825280602002602001820160405280156112d457816020015b6112c1614b88565b8152602001906001900390816112b95790505b5090506000915060005b600a548110156111ca57336000908152600f60205260408120600a80549192918490811061130e5761130e6155e2565b90600052602060002090600502016000015481526020019081526020016000205460010361157757600a8181548110611349576113496155e2565b90600052602060002090600502016040518060c00160405290816000820154815260200160018201805461137c906155a8565b80601f01602080910402602001604051908101604052809291908181526020018280546113a8906155a8565b80156113f55780601f106113ca576101008083540402835291602001916113f5565b820191906000526020600020905b8154815290600101906020018083116113d857829003601f168201915b5050505050815260200160028201805461140e906155a8565b80601f016020809104026020016040519081016040528092919081815260200182805461143a906155a8565b80156114875780601f1061145c57610100808354040283529160200191611487565b820191906000526020600020905b81548152906001019060200180831161146a57829003601f168201915b505050505081526020016003820180546114a0906155a8565b80601f01602080910402602001604051908101604052809291908181526020018280546114cc906155a8565b80156115195780601f106114ee57610100808354040283529160200191611519565b820191906000526020600020905b8154815290600101906020018083116114fc57829003601f168201915b5050509183525050600491909101546001600160a01b0381166020830152600160a01b900460ff161515604090910152825183908590811061155d5761155d6155e2565b60200260200101819052508280611573906155f8565b9350505b80611581816155f8565b9150506112de565b610a2983838360405180602001604052806000815250612964565b6000818152600260205260408120546001600160a01b0316806108555760405162461bcd60e51b8152602060048201526018602482015277115490cdcc8c4e881a5b9d985b1a59081d1bdad95b88125160421b6044820152606401610988565b61160c614b88565b600a54821061162d5760405162461bcd60e51b815260040161098890615728565b6000600a8381548110611642576116426155e2565b90600052602060002090600502016040518060c001604052908160008201548152602001600182018054611675906155a8565b80601f01602080910402602001604051908101604052809291908181526020018280546116a1906155a8565b80156116ee5780601f106116c3576101008083540402835291602001916116ee565b820191906000526020600020905b8154815290600101906020018083116116d157829003601f168201915b50505050508152602001600282018054611707906155a8565b80601f0160208091040260200160405190810160405280929190818152602001828054611733906155a8565b80156117805780601f1061175557610100808354040283529160200191611780565b820191906000526020600020905b81548152906001019060200180831161176357829003601f168201915b50505050508152602001600382018054611799906155a8565b80601f01602080910402602001604051908101604052809291908181526020018280546117c5906155a8565b80156118125780601f106117e757610100808354040283529160200191611812565b820191906000526020600020905b8154815290600101906020018083116117f557829003601f168201915b5050509183525050600491909101546001600160a01b0381166020830152600160a01b900460ff1615156040909101529392505050565b336000908152600860208190526040918290206006810185905560078101805460ff1990811686151517909155600582018054909116600190811790915581546003830154600484015495517f8beb85d881f8e4b2efb024861d04fb0ea449171c88a71468218e2f55ad590284966118e69660ff909416958581019560028201956001600160a01b0390951694929390928c928c92910190615756565b60405180910390a1600c80548491600e9160009182611904836155f8565b9190505581526020019081526020016000209081611922919061580e565b50505050565b60006001600160a01b0382166119925760405162461bcd60e51b815260206004820152602960248201527f4552433732313a2061646472657373207a65726f206973206e6f7420612076616044820152683634b21037bbb732b960b91b6064820152608401610988565b506001600160a01b031660009081526003602052604090205490565b60606000805b600a54811015611a2c57336000908152600f60205260408120600a8054919291849081106119e4576119e46155e2565b906000526020600020906005020160000154815260200190815260200160002054600203611a1a5781611a16816155f8565b9250505b80611a24816155f8565b9150506119b4565b506000816001600160401b03811115611a4757611a47614d7c565b604051908082528060200260200182016040528015611a8057816020015b611a6d614b88565b815260200190600190039081611a655790505b5090506000915060005b600a548110156111ca57336000908152600f60205260408120600a805491929184908110611aba57611aba6155e2565b906000526020600020906005020160000154815260200190815260200160002054600203611d2357600a8181548110611af557611af56155e2565b90600052602060002090600502016040518060c001604052908160008201548152602001600182018054611b28906155a8565b80601f0160208091040260200160405190810160405280929190818152602001828054611b54906155a8565b8015611ba15780601f10611b7657610100808354040283529160200191611ba1565b820191906000526020600020905b815481529060010190602001808311611b8457829003601f168201915b50505050508152602001600282018054611bba906155a8565b80601f0160208091040260200160405190810160405280929190818152602001828054611be6906155a8565b8015611c335780601f10611c0857610100808354040283529160200191611c33565b820191906000526020600020905b815481529060010190602001808311611c1657829003601f168201915b50505050508152602001600382018054611c4c906155a8565b80601f0160208091040260200160405190810160405280929190818152602001828054611c78906155a8565b8015611cc55780601f10611c9a57610100808354040283529160200191611cc5565b820191906000526020600020905b815481529060010190602001808311611ca857829003601f168201915b5050509183525050600491909101546001600160a01b0381166020830152600160a01b900460ff1615156040909101528251839085908110611d0957611d096155e2565b60200260200101819052508280611d1f906155f8565b9350505b80611d2d816155f8565b915050611a8a565b600a548210611d565760405162461bcd60e51b815260040161098890615728565b6001600160a01b03811660009081526008602052604090205460ff16611d8e5760405162461bcd60e51b8152600401610988906158cd565b6001600160a01b03811660009081526008602052604090206005015460ff16611dc95760405162461bcd60e51b8152600401610988906158fa565b6001600160a01b0381166000908152600f60209081526040808320858452909152902054600114611e335760405162461bcd60e51b815260206004820152601460248201527327379034b73a32b932b9ba1034b99039b437bbb760611b6044820152606401610988565b600a8281548110611e4657611e466155e2565b60009182526020909120600590910201600401546001600160a01b03163314611eb15760405162461bcd60e51b815260206004820181905260248201527f4f6e6c7920616e206576656e742063726561746f722063616e2072656a6563746044820152606401610988565b806001600160a01b0316600a8381548110611ece57611ece6155e2565b60009182526020909120600460059092020101546001600160a01b031614611f58576001600160a01b0381166000818152600f602090815260408083208684528252918290206002908190558251938452908301859052908201527f1b1bd063033cda9fc11a6b3279f43264f9fe03fcfdfafe7f2cfbe3ab87fe2408906060015b60405180910390a15b5050565b60098181548110611f6c57600080fd5b60009182526020909120600990910201805460018201805460ff909216935090611f95906155a8565b80601f0160208091040260200160405190810160405280929190818152602001828054611fc1906155a8565b801561200e5780601f10611fe35761010080835404028352916020019161200e565b820191906000526020600020905b815481529060010190602001808311611ff157829003601f168201915b505050505090806002018054612023906155a8565b80601f016020809104026020016040519081016040528092919081815260200182805461204f906155a8565b801561209c5780601f106120715761010080835404028352916020019161209c565b820191906000526020600020905b81548152906001019060200180831161207f57829003601f168201915b5050506003840154600485015460058601546006870154600788015460088901805498996001600160a01b039096169894975060ff938416965091949216926120e4906155a8565b80601f0160208091040260200160405190810160405280929190818152602001828054612110906155a8565b801561215d5780601f106121325761010080835404028352916020019161215d565b820191906000526020600020905b81548152906001019060200180831161214057829003601f168201915b5050505050905089565b3360009081526008602052604081205460ff1615156001036121895750600190565b50600090565b60606001805461086a906155a8565b3360009081526008602052604090205460ff166121cd5760405162461bcd60e51b8152600401610988906158cd565b3360009081526008602052604090206005015460ff166121ff5760405162461bcd60e51b8152600401610988906158fa565b6040805160c081018252600b5481526020810185815291810184905260608101839052336080820152600060a08201819052600a80546001810182559152815160059091027fc65a7bb8d6351c1cf70c95a316cc6a92839c986682d98bc35f958f4883f9d2a881019182559251919290917fc65a7bb8d6351c1cf70c95a316cc6a92839c986682d98bc35f958f4883f9d2a99091019061229f908261580e565b50604082015160028201906122b4908261580e565b50606082015160038201906122c9908261580e565b5060808201516004909101805460a0909301511515600160a01b026001600160a81b03199093166001600160a01b0390921691909117919091179055600b546040517f92a5765aa9d1a333468316385e321d9a80cea3b05b316f186f40d0d00b23a65591612341918690869086903390600090614d19565b60405180910390a1600b8054906000612359836155f8565b9190505550505050565b33600090815260086020819052604090912001612380828261580e565b503360009081526008602081905260409182902080546003820154600483015460058401546006850154600786015497517f8beb85d881f8e4b2efb024861d04fb0ea449171c88a71468218e2f55ad590284986124019860ff97881698600181019860028201986001600160a01b0316979681169594931692910190615756565b60405180910390a150565b611f58338383614559565b60606000805b600a5481101561248657836001600160a01b0316600a8281548110612444576124446155e2565b60009182526020909120600460059092020101546001600160a01b0316036124745781612470816155f8565b9250505b8061247e816155f8565b91505061241d565b506000816001600160401b038111156124a1576124a1614d7c565b6040519080825280602002602001820160405280156124da57816020015b6124c7614b88565b8152602001906001900390816124bf5790505b5090506000915060005b600a5481101561278057846001600160a01b0316600a828154811061250b5761250b6155e2565b60009182526020909120600460059092020101546001600160a01b03160361276e57600a8181548110612540576125406155e2565b90600052602060002090600502016040518060c001604052908160008201548152602001600182018054612573906155a8565b80601f016020809104026020016040519081016040528092919081815260200182805461259f906155a8565b80156125ec5780601f106125c1576101008083540402835291602001916125ec565b820191906000526020600020905b8154815290600101906020018083116125cf57829003601f168201915b50505050508152602001600282018054612605906155a8565b80601f0160208091040260200160405190810160405280929190818152602001828054612631906155a8565b801561267e5780601f106126535761010080835404028352916020019161267e565b820191906000526020600020905b81548152906001019060200180831161266157829003601f168201915b50505050508152602001600382018054612697906155a8565b80601f01602080910402602001604051908101604052809291908181526020018280546126c3906155a8565b80156127105780601f106126e557610100808354040283529160200191612710565b820191906000526020600020905b8154815290600101906020018083116126f357829003601f168201915b5050509183525050600491909101546001600160a01b0381166020830152600160a01b900460ff1615156040909101528251839085908110612754576127546155e2565b6020026020010181905250828061276a906155f8565b9350505b80612778816155f8565b9150506124e4565b509392505050565b6008602052600090815260409020805460018201805460ff9092169291611f95906155a8565b600a5481106127cf5760405162461bcd60e51b815260040161098890615728565b3360009081526008602052604090205460ff166127fe5760405162461bcd60e51b8152600401610988906158cd565b3360009081526008602052604090206005015460ff166128305760405162461bcd60e51b8152600401610988906158fa565b336000908152600f602090815260408083208484529091529020541561288d5760405162461bcd60e51b8152602060048201526012602482015271105b1c9958591e481a5b9d195c995cdd195960721b6044820152606401610988565b336001600160a01b0316600a82815481106128aa576128aa6155e2565b60009182526020909120600460059092020101546001600160a01b03160361290a5760405162461bcd60e51b815260206004820152601360248201527221b932b0ba37b91031b0b73737ba103537b4b760691b6044820152606401610988565b336000818152600f602090815260408083208584528252918290206001908190558251938452908301849052908201527f1b1bd063033cda9fc11a6b3279f43264f9fe03fcfdfafe7f2cfbe3ab87fe240890606001612401565b61296e3383614377565b61298a5760405162461bcd60e51b8152600401610988906156db565b61192284848484614627565b60606000805b600954811015612a1d57600f6000600983815481106129bd576129bd6155e2565b60009182526020808320600360099093020191909101546001600160a01b031683528281019390935260409182018120878252909252902054600203612a0b5781612a07816155f8565b9250505b80612a15816155f8565b91505061299c565b506000816001600160401b03811115612a3857612a38614d7c565b604051908082528060200260200182016040528015612a7157816020015b612a5e614bc9565b815260200190600190039081612a565790505b5090506000915060005b60095481101561278057600f600060098381548110612a9c57612a9c6155e2565b60009182526020808320600360099093020191909101546001600160a01b031683528281019390935260409182018120888252909252902054600203612d475760098181548110612aef57612aef6155e2565b6000918252602091829020604080516101208101909152600990920201805460ff16151582526001810180549293919291840191612b2c906155a8565b80601f0160208091040260200160405190810160405280929190818152602001828054612b58906155a8565b8015612ba55780601f10612b7a57610100808354040283529160200191612ba5565b820191906000526020600020905b815481529060010190602001808311612b8857829003601f168201915b50505050508152602001600282018054612bbe906155a8565b80601f0160208091040260200160405190810160405280929190818152602001828054612bea906155a8565b8015612c375780601f10612c0c57610100808354040283529160200191612c37565b820191906000526020600020905b815481529060010190602001808311612c1a57829003601f168201915b505050918352505060038201546001600160a01b0316602082015260048201546040820152600582015460ff9081161515606083015260068301546080830152600783015416151560a082015260088201805460c090920191612c99906155a8565b80601f0160208091040260200160405190810160405280929190818152602001828054612cc5906155a8565b8015612d125780601f10612ce757610100808354040283529160200191612d12565b820191906000526020600020905b815481529060010190602001808311612cf557829003601f168201915b505050505081525050828481518110612d2d57612d2d6155e2565b60200260200101819052508280612d43906155f8565b9350505b80612d51816155f8565b915050612a7b565b612d61614bc9565b3360009081526008602052604090205460ff161515600103612fb6576001600160a01b03821660009081526008602090815260409182902082516101208101909352805460ff16151583526001810180549192840191612dc0906155a8565b80601f0160208091040260200160405190810160405280929190818152602001828054612dec906155a8565b8015612e395780601f10612e0e57610100808354040283529160200191612e39565b820191906000526020600020905b815481529060010190602001808311612e1c57829003601f168201915b50505050508152602001600282018054612e52906155a8565b80601f0160208091040260200160405190810160405280929190818152602001828054612e7e906155a8565b8015612ecb5780601f10612ea057610100808354040283529160200191612ecb565b820191906000526020600020905b815481529060010190602001808311612eae57829003601f168201915b505050918352505060038201546001600160a01b0316602082015260048201546040820152600582015460ff9081161515606083015260068301546080830152600783015416151560a082015260088201805460c090920191612f2d906155a8565b80601f0160208091040260200160405190810160405280929190818152602001828054612f59906155a8565b8015612fa65780601f10612f7b57610100808354040283529160200191612fa6565b820191906000526020600020905b815481529060010190602001808311612f8957829003601f168201915b5050505050815250509050919050565b60405162461bcd60e51b8152602060048201526009602482015268139bdd08199bdd5b9960ba1b6044820152606401610988565b600081604051602001612ffd9190615925565b60405160208183030381529060405280519060200120836040516020016130249190615925565b6040516020818303038152906040528051906020012014905092915050565b6010602052816000526040600020818154811061305f57600080fd5b6000918252602090912001546001600160a01b03169150829050565b6060600a805480602002602001604051908101604052809291908181526020016000905b828210156132c157838290600052602060002090600502016040518060c0016040529081600082015481526020016001820180546130dc906155a8565b80601f0160208091040260200160405190810160405280929190818152602001828054613108906155a8565b80156131555780601f1061312a57610100808354040283529160200191613155565b820191906000526020600020905b81548152906001019060200180831161313857829003601f168201915b5050505050815260200160028201805461316e906155a8565b80601f016020809104026020016040519081016040528092919081815260200182805461319a906155a8565b80156131e75780601f106131bc576101008083540402835291602001916131e7565b820191906000526020600020905b8154815290600101906020018083116131ca57829003601f168201915b50505050508152602001600382018054613200906155a8565b80601f016020809104026020016040519081016040528092919081815260200182805461322c906155a8565b80156132795780601f1061324e57610100808354040283529160200191613279565b820191906000526020600020905b81548152906001019060200180831161325c57829003601f168201915b5050509183525050600491909101546001600160a01b038116602080840191909152600160a01b90910460ff161515604090920191909152908252600192909201910161309f565b50505050905090565b60606000805b60095481101561334d57600f6000600983815481106132f1576132f16155e2565b6000918252602080832060036009909302018201546001600160a01b0316845283810194909452604092830182208883529093522054900361333b5781613337816155f8565b9250505b80613345816155f8565b9150506132d0565b506000816001600160401b0381111561336857613368614d7c565b6040519080825280602002602001820160405280156133a157816020015b61338e614bc9565b8152602001906001900390816133865790505b5090506000915060005b60095481101561278057600f6000600983815481106133cc576133cc6155e2565b6000918252602080832060036009909302018201546001600160a01b03168452838101949094526040928301822089835290935220549003613673576009818154811061341b5761341b6155e2565b6000918252602091829020604080516101208101909152600990920201805460ff16151582526001810180549293919291840191613458906155a8565b80601f0160208091040260200160405190810160405280929190818152602001828054613484906155a8565b80156134d15780601f106134a6576101008083540402835291602001916134d1565b820191906000526020600020905b8154815290600101906020018083116134b457829003601f168201915b505050505081526020016002820180546134ea906155a8565b80601f0160208091040260200160405190810160405280929190818152602001828054613516906155a8565b80156135635780601f1061353857610100808354040283529160200191613563565b820191906000526020600020905b81548152906001019060200180831161354657829003601f168201915b505050918352505060038201546001600160a01b0316602082015260048201546040820152600582015460ff9081161515606083015260068301546080830152600783015416151560a082015260088201805460c0909201916135c5906155a8565b80601f01602080910402602001604051908101604052809291908181526020018280546135f1906155a8565b801561363e5780601f106136135761010080835404028352916020019161363e565b820191906000526020600020905b81548152906001019060200180831161362157829003601f168201915b505050505081525050828481518110613659576136596155e2565b6020026020010181905250828061366f906155f8565b9350505b8061367d816155f8565b9150506133ab565b6060613690826142a7565b600082815260066020526040812080546136a9906155a8565b80601f01602080910402602001604051908101604052809291908181526020018280546136d5906155a8565b80156137225780601f106136f757610100808354040283529160200191613722565b820191906000526020600020905b81548152906001019060200180831161370557829003601f168201915b50505050509050600061374060408051602081019091526000815290565b90508051600003613752575092915050565b81511561378457808260405160200161376c929190615941565b60405160208183030381529060405292505050919050565b61378d8461465a565b949350505050565b3360009081526008602052604090205460ff16156137f55760405162461bcd60e51b815260206004820152601760248201527f5573657220616c726561647920726567697374657265640000000000000000006044820152606401610988565b604080516101208101825260018082526020808301878152838501879052336060850181905260006080860181905260a0860181905260c0860185905260e08601819052610100860188905290815260089092529390208251815460ff191690151517815592519192919082019061386d908261580e565b5060408201516002820190613882908261580e565b5060608201516003820180546001600160a01b039092166001600160a01b03199092169190911790556080820151600482015560a082015160058201805491151560ff1992831617905560c0830151600683015560e0830151600783018054911515919092161790556101008201516008820190613900908261580e565b509050507f8beb85d881f8e4b2efb024861d04fb0ea449171c88a71468218e2f55ad5902846001848433600080600160008960405161394799989796959493929190615190565b60405180910390a1336000908152600860205260408120600980546001818101835593829052825491027f6e1540171b6c0c960b71a7020d9f60077f6af931a8bbf590da0223dacf75c7af8101805460ff909316151560ff19909316929092178255919290917f6e1540171b6c0c960b71a7020d9f60077f6af931a8bbf590da0223dacf75c7b001906139dc90840182615970565b506002818101906139ef90840182615970565b5060038281015490820180546001600160a01b0319166001600160a01b0390921691909117905560048083015490820155600580830154908201805460ff928316151560ff19918216179091556006808501549084015560078085015490840180549190931615159116179055600880820190613a6e90840182615970565b505050505050565b613a84600780546001019055565b6000613a8f60075490565b9050613a9b33826146ce565b613aa58183614859565b6040805160a08101825286815260208082018481526001600160a01b0388811684860190815260608501898152608086018990526000888152600d90955295909320845181559151600183015591516002820180546001600160a01b031916919093161790915591519091906003820190613b20908261580e565b5060808201516004820190613b35908261580e565b509050507f3b6df6c17710762c74303e0c441be3a612a0865bd3a1d3a3d9a89ff557e3b3098582868686604051613b70959493929190615a4a565b60405180910390a15050505050565b600a548210613ba05760405162461bcd60e51b815260040161098890615728565b6001600160a01b03811660009081526008602052604090205460ff16613bd85760405162461bcd60e51b8152600401610988906158cd565b6001600160a01b03811660009081526008602052604090206005015460ff16613c135760405162461bcd60e51b8152600401610988906158fa565b6001600160a01b0381166000908152600f60209081526040808320858452909152902054600114613c7d5760405162461bcd60e51b815260206004820152601460248201527327379034b73a32b932b9ba1034b99039b437bbb760611b6044820152606401610988565b600a8281548110613c9057613c906155e2565b60009182526020909120600590910201600401546001600160a01b03163314613d055760405162461bcd60e51b815260206004820152602160248201527f4f6e6c7920616e206576656e742063726561746f722063616e20617070726f766044820152606560f81b6064820152608401610988565b806001600160a01b0316600a8381548110613d2257613d226155e2565b60009182526020909120600460059092020101546001600160a01b031614611f58576001600160a01b0381166000818152600f602090815260408083208684528252918290206003908190558251938452908301859052908201527f1b1bd063033cda9fc11a6b3279f43264f9fe03fcfdfafe7f2cfbe3ab87fe240890606001611f4f565b600a546000908210613dcb5760405162461bcd60e51b815260040161098890615728565b600a8281548110613dde57613dde6155e2565b60009182526020909120600460059092020101546001600160a01b031692915050565b6000805b600c54811015613e8b576000818152600e60209081526040918290209151613e2e929101615a95565b6040516020818303038152906040528051906020012083604051602001613e559190615925565b6040516020818303038152906040528051906020012003613e795750600192915050565b80613e83816155f8565b915050613e05565b50600092915050565b60606000805b600954811015613f1b57600f600060098381548110613ebb57613ebb6155e2565b60009182526020808320600360099093020191909101546001600160a01b031683528281019390935260409182018120878252909252902054600103613f095781613f05816155f8565b9250505b80613f13816155f8565b915050613e9a565b506000816001600160401b03811115613f3657613f36614d7c565b604051908082528060200260200182016040528015613f6f57816020015b613f5c614bc9565b815260200190600190039081613f545790505b5090506000915060005b60095481101561278057600f600060098381548110613f9a57613f9a6155e2565b60009182526020808320600360099093020191909101546001600160a01b0316835282810193909352604091820181208882529092529020546001036142455760098181548110613fed57613fed6155e2565b6000918252602091829020604080516101208101909152600990920201805460ff1615158252600181018054929391929184019161402a906155a8565b80601f0160208091040260200160405190810160405280929190818152602001828054614056906155a8565b80156140a35780601f10614078576101008083540402835291602001916140a3565b820191906000526020600020905b81548152906001019060200180831161408657829003601f168201915b505050505081526020016002820180546140bc906155a8565b80601f01602080910402602001604051908101604052809291908181526020018280546140e8906155a8565b80156141355780601f1061410a57610100808354040283529160200191614135565b820191906000526020600020905b81548152906001019060200180831161411857829003601f168201915b505050918352505060038201546001600160a01b0316602082015260048201546040820152600582015460ff9081161515606083015260068301546080830152600783015416151560a082015260088201805460c090920191614197906155a8565b80601f01602080910402602001604051908101604052809291908181526020018280546141c3906155a8565b80156142105780601f106141e557610100808354040283529160200191614210565b820191906000526020600020905b8154815290600101906020018083116141f357829003601f168201915b50505050508152505082848151811061422b5761422b6155e2565b60200260200101819052508280614241906155f8565b9350505b8061424f816155f8565b915050613f79565b60006001600160e01b031982166380ac58cd60e01b148061428857506001600160e01b03198216635b5e139f60e01b145b8061085557506301ffc9a760e01b6001600160e01b0319831614610855565b6000818152600260205260409020546001600160a01b03166143065760405162461bcd60e51b8152602060048201526018602482015277115490cdcc8c4e881a5b9d985b1a59081d1bdad95b88125160421b6044820152606401610988565b50565b600081815260046020526040902080546001600160a01b0319166001600160a01b038416908117909155819061433e826115a4565b6001600160a01b03167f8c5be1e5ebec7d5bd14f71427d1e84f3dd0314c0f7b2291e5b200ac8c7c3b92560405160405180910390a45050565b600080614383836115a4565b9050806001600160a01b0316846001600160a01b031614806143ca57506001600160a01b0380821660009081526005602090815260408083209388168352929052205460ff165b8061378d5750836001600160a01b03166143e3846108ed565b6001600160a01b031614949350505050565b826001600160a01b0316614408826115a4565b6001600160a01b03161461442e5760405162461bcd60e51b815260040161098890615b0b565b6001600160a01b0382166144905760405162461bcd60e51b8152602060048201526024808201527f4552433732313a207472616e7366657220746f20746865207a65726f206164646044820152637265737360e01b6064820152608401610988565b826001600160a01b03166144a3826115a4565b6001600160a01b0316146144c95760405162461bcd60e51b815260040161098890615b0b565b600081815260046020908152604080832080546001600160a01b03199081169091556001600160a01b0387811680865260038552838620805460001901905590871680865283862080546001019055868652600290945282852080549092168417909155905184937fddf252ad1be2c89b69c2b068fc378daa952ba7f163c4a11628f55a4df523b3ef91a4505050565b816001600160a01b0316836001600160a01b0316036145ba5760405162461bcd60e51b815260206004820152601960248201527f4552433732313a20617070726f766520746f2063616c6c6572000000000000006044820152606401610988565b6001600160a01b03838116600081815260056020908152604080832094871680845294825291829020805460ff191686151590811790915591519182527f17307eab39ab6107e8899845ad3d59bd9653f200f220920489ca2b5937696c31910160405180910390a3505050565b6146328484846143f5565b61463e8484848461491d565b6119225760405162461bcd60e51b815260040161098890615b50565b6060614665826142a7565b600061467c60408051602081019091526000815290565b9050600081511161469c57604051806020016040528060008152506146c7565b806146a684614a1e565b6040516020016146b7929190615941565b6040516020818303038152906040525b9392505050565b6001600160a01b0382166147245760405162461bcd60e51b815260206004820181905260248201527f4552433732313a206d696e7420746f20746865207a65726f20616464726573736044820152606401610988565b6000818152600260205260409020546001600160a01b0316156147895760405162461bcd60e51b815260206004820152601c60248201527f4552433732313a20746f6b656e20616c7265616479206d696e746564000000006044820152606401610988565b6000818152600260205260409020546001600160a01b0316156147ee5760405162461bcd60e51b815260206004820152601c60248201527f4552433732313a20746f6b656e20616c7265616479206d696e746564000000006044820152606401610988565b6001600160a01b038216600081815260036020908152604080832080546001019055848352600290915280822080546001600160a01b0319168417905551839291907fddf252ad1be2c89b69c2b068fc378daa952ba7f163c4a11628f55a4df523b3ef908290a45050565b6000828152600260205260409020546001600160a01b03166148d45760405162461bcd60e51b815260206004820152602e60248201527f45524337323155524953746f726167653a2055524920736574206f66206e6f6e60448201526d32bc34b9ba32b73a103a37b5b2b760911b6064820152608401610988565b60008281526006602052604090206148ec828261580e565b506040518281527ff8e1a15aba9398e019f0b49df1a4fde98ee17ae345cb5f6b5e2c27f5033e8ce790602001611f4f565b60006001600160a01b0384163b15614a1357604051630a85bd0160e11b81526001600160a01b0385169063150b7a0290614961903390899088908890600401615ba2565b6020604051808303816000875af192505050801561499c575060408051601f3d908101601f1916820190925261499991810190615bd5565b60015b6149f9573d8080156149ca576040519150601f19603f3d011682016040523d82523d6000602084013e6149cf565b606091505b5080516000036149f15760405162461bcd60e51b815260040161098890615b50565b805181602001fd5b6001600160e01b031916630a85bd0160e11b14905061378d565b506001949350505050565b60606000614a2b83614ab0565b60010190506000816001600160401b03811115614a4a57614a4a614d7c565b6040519080825280601f01601f191660200182016040528015614a74576020820181803683370190505b5090508181016020015b600019016f181899199a1a9b1b9c1cb0b131b232b360811b600a86061a8153600a8504945084614a7e57509392505050565b60008072184f03e93ff9f4daa797ed6e38ed64bf6a1f0160401b8310614aef5772184f03e93ff9f4daa797ed6e38ed64bf6a1f0160401b830492506040015b6d04ee2d6d415b85acef81000000008310614b1b576d04ee2d6d415b85acef8100000000830492506020015b662386f26fc100008310614b3957662386f26fc10000830492506010015b6305f5e1008310614b51576305f5e100830492506008015b6127108310614b6557612710830492506004015b60648310614b77576064830492506002015b600a83106108555760010192915050565b6040518060c001604052806000815260200160608152602001606081526020016060815260200160006001600160a01b031681526020016000151581525090565b604051806101200160405280600015158152602001606081526020016060815260200160006001600160a01b031681526020016000815260200160001515815260200160008152602001600015158152602001606081525090565b6001600160e01b03198116811461430657600080fd5b600060208284031215614c4c57600080fd5b81356146c781614c24565b60005b83811015614c72578181015183820152602001614c5a565b50506000910152565b60008151808452614c93816020860160208601614c57565b601f01601f19169290920160200192915050565b6020815260006146c76020830184614c7b565b600060208284031215614ccc57600080fd5b5035919050565b80356001600160a01b0381168114614cea57600080fd5b919050565b60008060408385031215614d0257600080fd5b614d0b83614cd3565b946020939093013593505050565b86815260c060208201526000614d3260c0830188614c7b565b8281036040840152614d448188614c7b565b90508281036060840152614d588187614c7b565b6001600160a01b03959095166080840152505090151560a090910152949350505050565b634e487b7160e01b600052604160045260246000fd5b604051601f8201601f191681016001600160401b0381118282101715614dba57614dba614d7c565b604052919050565b60006001600160401b03821115614ddb57614ddb614d7c565b5060051b60200190565b60006001600160401b03831115614dfe57614dfe614d7c565b614e11601f8401601f1916602001614d92565b9050828152838383011115614e2557600080fd5b828260208301376000602084830101529392505050565b600082601f830112614e4d57600080fd5b6146c783833560208501614de5565b600082601f830112614e6d57600080fd5b81356020614e82614e7d83614dc2565b614d92565b82815260059290921b84018101918181019086841115614ea157600080fd5b8286015b84811015614ee05780356001600160401b03811115614ec45760008081fd5b614ed28986838b0101614e3c565b845250918301918301614ea5565b509695505050505050565b600080600060608486031215614f0057600080fd5b833592506020808501356001600160401b0380821115614f1f57600080fd5b818701915087601f830112614f3357600080fd5b8135614f41614e7d82614dc2565b81815260059190911b8301840190848101908a831115614f6057600080fd5b938501935b82851015614f8557614f7685614cd3565b82529385019390850190614f65565b965050506040870135925080831115614f9d57600080fd5b5050614fab86828701614e5c565b9150509250925092565b805182526000602082015160c06020850152614fd460c0850182614c7b565b905060408301518482036040860152614fed8282614c7b565b915050606083015184820360608601526150078282614c7b565b6080858101516001600160a01b03169087015260a09485015115159590940194909452509092915050565b6000602080830181845280855180835260408601915060408160051b870101925083870160005b8281101561508757603f19888603018452615075858351614fb5565b94509285019290850190600101615059565b5092979650505050505050565b6000806000606084860312156150a957600080fd5b6150b284614cd3565b92506150c060208501614cd3565b9150604084013590509250925092565b6020815260006146c76020830184614fb5565b80358015158114614cea57600080fd5b60008060006060848603121561510857600080fd5b83356001600160401b0381111561511e57600080fd5b61512a86828701614e3c565b93505060208401359150615140604085016150e3565b90509250925092565b60006020828403121561515b57600080fd5b6146c782614cd3565b6000806040838503121561517757600080fd5b8235915061518760208401614cd3565b90509250929050565b60006101208b151583528060208401526151ac8184018c614c7b565b905082810360408401526151c0818b614c7b565b6001600160a01b038a1660608501526080840189905287151560a085015260c0840187905285151560e085015283810361010085015290506152028185614c7b565b9c9b505050505050505050505050565b60008060006060848603121561522757600080fd5b83356001600160401b038082111561523e57600080fd5b61524a87838801614e3c565b9450602086013591508082111561526057600080fd5b61526c87838801614e3c565b9350604086013591508082111561528257600080fd5b50614fab86828701614e3c565b6000602082840312156152a157600080fd5b81356001600160401b038111156152b757600080fd5b61378d84828501614e3c565b600080604083850312156152d657600080fd5b6152df83614cd3565b9150615187602084016150e3565b6000806000806080858703121561530357600080fd5b61530c85614cd3565b935061531a60208601614cd3565b92506040850135915060608501356001600160401b0381111561533c57600080fd5b8501601f8101871361534d57600080fd5b61535c87823560208401614de5565b91505092959194509250565b8051151582526000610120602083015181602086015261538a82860182614c7b565b915050604083015184820360408601526153a48282614c7b565b91505060608301516153c160608601826001600160a01b03169052565b506080830151608085015260a08301516153df60a086018215159052565b5060c083015160c085015260e08301516153fd60e086018215159052565b5061010080840151858303828701526154168382614c7b565b9695505050505050565b6000602080830181845280855180835260408601915060408160051b870101925083870160005b8281101561508757603f19888603018452615463858351615368565b94509285019290850190600101615447565b6020815260006146c76020830184615368565b6000806040838503121561549b57600080fd5b82356001600160401b03808211156154b257600080fd5b6154be86838701614e3c565b935060208501359150808211156154d457600080fd5b506154e185828601614e3c565b9150509250929050565b600080604083850312156154fe57600080fd5b50508035926020909101359150565b6000806000806080858703121561552357600080fd5b8435935061553360208601614cd3565b925060408501356001600160401b038082111561554f57600080fd5b61555b88838901614e3c565b9350606087013591508082111561557157600080fd5b5061535c87828801614e3c565b6000806040838503121561559157600080fd5b61559a83614cd3565b915061518760208401614cd3565b600181811c908216806155bc57607f821691505b6020821081036155dc57634e487b7160e01b600052602260045260246000fd5b50919050565b634e487b7160e01b600052603260045260246000fd5b60006001820161561857634e487b7160e01b600052601160045260246000fd5b5060010190565b6000815461562c816155a8565b808552602060018381168015615649576001811461566357615691565b60ff1985168884015283151560051b880183019550615691565b866000528260002060005b858110156156895781548a820186015290830190840161566e565b890184019650505b505050505092915050565b86815260c0602082015260006156b560c083018861561f565b82810360408401526156c7818861561f565b90508281036060840152614d58818761561f565b6020808252602d908201527f4552433732313a2063616c6c6572206973206e6f7420746f6b656e206f776e6560408201526c1c881bdc88185c1c1c9bdd9959609a1b606082015260800190565b602080825260149082015273115d995b9d08191bd95cc81b9bdd08195e1a5cdd60621b604082015260600190565b60006101208b151583528060208401526157728184018c61561f565b90508281036040840152615786818b61561f565b6001600160a01b038a1660608501526080840189905287151560a085015260c0840187905285151560e08501528381036101008501529050615202818561561f565b601f821115610a2957600081815260208120601f850160051c810160208610156157ef5750805b601f850160051c820191505b81811015613a6e578281556001016157fb565b81516001600160401b0381111561582757615827614d7c565b61583b8161583584546155a8565b846157c8565b602080601f83116001811461587057600084156158585750858301515b600019600386901b1c1916600185901b178555613a6e565b600085815260208120601f198616915b8281101561589f57888601518255948401946001909101908401615880565b50858210156158bd5787850151600019600388901b60f8161c191681555b5050505050600190811b01905550565b602080825260139082015272155cd95c881b9bdd081c9959da5cdd195c9959606a1b604082015260600190565b602080825260119082015270155cd95c881b9bdd081d995c9a599a5959607a1b604082015260600190565b60008251615937818460208701614c57565b9190910192915050565b60008351615953818460208801614c57565b835190830190615967818360208801614c57565b01949350505050565b81810361597b575050565b61598582546155a8565b6001600160401b0381111561599c5761599c614d7c565b6159aa8161583584546155a8565b6000601f8211600181146159de57600083156159c65750848201545b600019600385901b1c1916600184901b178455615a43565b600085815260209020601f19841690600086815260209020845b83811015615a1857828601548255600195860195909101906020016159f8565b5085831015615a365781850154600019600388901b60f8161c191681555b50505060018360011b0184555b5050505050565b85815284602082015260018060a01b038416604082015260a060608201526000615a7760a0830185614c7b565b8281036080840152615a898185614c7b565b98975050505050505050565b6000808354615aa3816155a8565b60018281168015615abb5760018114615ad057615aff565b60ff1984168752821515830287019450615aff565b8760005260208060002060005b85811015615af65781548a820152908401908201615add565b50505082870194505b50929695505050505050565b60208082526025908201527f4552433732313a207472616e736665722066726f6d20696e636f72726563742060408201526437bbb732b960d91b606082015260800190565b60208082526032908201527f4552433732313a207472616e7366657220746f206e6f6e20455243373231526560408201527131b2b4bb32b91034b6b83632b6b2b73a32b960711b606082015260800190565b6001600160a01b038581168252841660208201526040810183905260806060820181905260009061541690830184614c7b565b600060208284031215615be757600080fd5b81516146c781614c2456fea2646970667358221220f67a97fd7ba8fcfc76b1cd55adfa96cbe7ca30084e2e6a0f6ec3c777943bba7e64736f6c63430008110033",
  "linkReferences": {},
  "deployedLinkReferences": {}
}